:100000000C940D010C9435010C9435010C943501C0
:100010000C9435010C9435010C9435010C94350188
:100020000C9435010C9435010C9435010C942D0E73
:100030000C9435010C9435010C9435010C94350168
:100040000C946C0C0C9435010C94DC0C0C94B60CD8
:100050000C9435010C9435010C9435010C94350148
:100060000C940E0D0C94350107634236B79BD8A74C
:100070001A39685618AEBAAB558C1D3CB7CC5763CD
:10008000BD6DEDFD753EF6177231BF000000803F7B
:1000900008000000BE922449123EABAAAA2ABECD97
:1000A000CCCC4C3E00000080BEABAAAAAA3E000009
:1000B0000000BF000000803F000000000008417801
:1000C000D3BB4387D1133D190E3CC3BD4282AD2B38
:1000D0003E68EC8276BED98FE1A93E4C80EFFFBE30
:1000E00001C4FF7F3F0000000000456E2061747472
:1000F000656E746520647520636170746575722027
:10010000424D503238302E2E2E00506F72742073B4
:10011000C3A9726965206163746976C3A92E000062
:10012000000000230026002900436F6D6D616E649E
:1001300065206E6F6E20696D706C656D656E74659F
:10014000650050696E20616E616C6F6769717565DD
:1001500020696E76616C696465000000000024000F
:1001600027002A0000000000250028002B000404BE
:10017000040404040404020202020202030303034F
:10018000030301020408102040800102040810202B
:100190000102040810200000000800020100000312
:1001A00004070000000000000000227D0D0A002C62
:1001B0002276616C7565223A2200222C22737461CA
:1001C000747573223A007B22636D64223A22002CFC
:1001D0002276616C7565223A6E756C6C7D0D0A0035
:1001E000222C22737461747573223A007B22636D32
:1001F00064223A22007D0D0A002C2276616C75651E
:10020000223A00222C22737461747573223A007BA7
:1002100022636D64223A2200E90E11241FBECFEF43
:10022000D8E0DEBFCDBF11E0A0E0B1E0E8E1F5E34A
:1002300002C005900D92AE3EB107D9F724E0AEEEB4
:10024000B1E001C01D92AE31B207E1F711E0CDE09F
:10025000D1E004C02197FE010E945E1ACC30D10784
:10026000C9F70E94790F0C948A1A0C940000089523
:100270000895833081F028F4813099F08230A9F01C
:1002800008958730A9F08830C9F08430B1F48091A6
:1002900080008F7D03C0809180008F7780938000E5
:1002A000089584B58F7784BD089584B58F7DFBCF85
:1002B0008091B0008F778093B00008958091B00056
:1002C0008F7DF9CF1F93CF93DF93282F30E0F90173
:1002D000EA56FE4F8491F901EE57FE4FD491F90191
:1002E000E259FE4FC491CC23A9F0162F81110E9430
:1002F0003901EC2FF0E0EE0FFF1FEC59FE4FA591F6
:10030000B4918FB7F894EC91111108C0D095DE2309
:10031000DC938FBFDF91CF911F910895DE2BF8CF33
:10032000CF93DF9390E0FC01EE57FE4F249182596A
:100330009E4FFC0184918823D1F090E0880F991F93
:10034000FC01E65AFE4FA591B491FC01EC59FE4F19
:10035000C591D49161110EC09FB7F8948C91E22F92
:10036000E0958E238C932881E223E8839FBFDF9161
:10037000CF9108958FB7F894EC91E22BEC938FBF57
:10038000F6CF1F93CF93DF93EC01162F88818C302B
:1003900008F04EC061E0812F0E9490018881282FD3
:1003A00030E0F901EE0FFF1FE20FF31FE355FC4FA2
:1003B0001F736081607C612B608319821A822CE03C
:1003C000622F0E940619829FB001112430E020E0C4
:1003D000AB01420F531FFA01EE0FFF1FE40FF51F91
:1003E000E355FC4F908196FD16C02F5F3F4F2C3098
:1003F000310571F781110FC01092800082E0809367
:1004000081001092850010928400B19A80916F0053
:10041000826080936F00E8818E2F90E0FC01EE0FE8
:10042000FF1FE80FF91FE355FC4F80818064808334
:100430008881DF91CF911F9108953FB7F894809103
:100440006A0290916B02A0916C02B0916D0226B588
:10045000A89B05C02F3F19F00196A11DB11D3FBFFC
:10046000BA2FA92F982F8827BC01CD01620F711DCB
:10047000811D911D42E0660F771F881F991F4A95C5
:10048000D1F70895AF92BF92CF92DF92EF92FF9291
:100490000F931F93CF93DF936C017B018B01040FAC
:1004A000151FEB015E01AE18BF08C017D10759F048
:1004B0006991D601ED91FC910190F081E02DC6018A
:1004C0000995892B79F7C501DF91CF911F910F9184
:1004D000FF90EF90DF90CF90BF90AF900895FC0118
:1004E000538D448D252F30E0842F90E0821B930B99
:1004F000541710F0CF96089501970895FC01918D3F
:10050000828D981761F0A28DAE0FBF2FB11D5D9641
:100510008C91928D9F5F9F73928F90E008958FEFE3
:100520009FEF0895FC01918D828D981731F0828D97
:10053000E80FF11D858D90E008958FEF9FEF0895EE
:10054000FC01918D228D892F90E0805C9F4F821B52
:1005500091098F739927089584E093E00E94A00287
:1005600021E0892B09F420E0822F089580E090E0BB
:10057000892B29F00E94AC0281110C94000008958F
:10058000FC01A48DA80FB92FB11DA35ABF4F2C9108
:10059000848D90E001968F739927848FA689B789FF
:1005A0002C93A089B1898C91837080648C93938DF6
:1005B000848D981306C00288F389E02D80818F7D99
:1005C00080830895EF92FF920F931F93CF93DF9351
:1005D000EC0181E0888F9B8D8C8D98131AC0E8897F
:1005E000F989808185FF15C09FB7F894EE89FF894E
:1005F0006083E889F98980818370806480839FBFEC
:1006000081E090E0DF91CF911F910F91FF90EF90EB
:100610000895F62E0B8D10E00F5F1F4F0F731127FB
:10062000E02E8C8D8E110CC00FB607FCFACFE88936
:10063000F989808185FFF5CFCE010E94C002F1CFFC
:10064000EB8DEC0FFD2FF11DE35AFF4FF0829FB7AA
:10065000F8940B8FEA89FB8980818062CFCF0F935A
:100660001F93CF93DF938C01D0E0C0E0F801EC0F33
:10067000FD1F6491662341F084E093E00E94E20252
:10068000892B11F02196F2CFCE01DF91CF911F91EE
:100690000F910895CF93DF93EC01888D8823B9F0F3
:1006A000AA89BB89E889F9898C9185FD03C080817D
:1006B00086FD0DC00FB607FCF7CF8C9185FFF2CFFA
:1006C000808185FFEDCFCE010E94C002E9CFDF918E
:1006D000CF910895089520913102260F3327331FBB
:1006E00021323105ECF42091BE02FC0190E080E063
:1006F000243069F082E00895A09131022191AC018B
:100700004F5E5D4FA40FB52FB11D2C930196861738
:1007100098F380913102680F6093310280E0089570
:1007200081E008951092BE0281E080939D021092B4
:10073000980261E082E10E94620161E083E10E942F
:100740006201E9EBF0E080818E7F808380818D7F84
:10075000808388E48093B80085E48093BC0008958A
:100760001092770210927602109273021092720227
:100770000E94920387E391E090937102809370024C
:1007800088E391E090936F0280936E020895CF9377
:10079000DF9391E0909310028823B9F0C091B800E4
:1007A000D091BA008091BC008A7B8093BC0060E04D
:1007B00082E10E94620160E083E10E9462010E9486
:1007C0009203D093BA00C093B800DF91CF910895FF
:1007D000CF92DF92EF92FF920F931F93CF93DF930D
:1007E000D82FC62F613208F098C00E941D026B01FD
:1007F0007C018091BE0281116BC081E08093BE02BA
:1008000080939D029FEF90939C0210929B029C0FFD
:1008100090939A028093990280919902DD0FD82BD0
:10082000D093990280919802813009F078C010929B
:1008300098020E941D026B017C01809199028093B5
:10084000BB008091C0029091C102A091C202B09100
:10085000C302892B8A2B8B2BA1F00E941D020091D1
:10086000C0021091C1022091C2023091C3026C19E2
:100870007D098E099F09061717072807390708F40D
:1008800048C08091BC0083FDD8CF85EC8093BC002C
:100890000E941D026B017C018091BE02813009F42F
:1008A00040C080919B028C1710F4C0919B02E8E736
:1008B000F2E0AEE9B2E080E08C1355C08C2FDF91FE
:1008C000CF911F910F91FF90EF90DF90CF900895FF
:1008D0008091C0029091C102A091C202B091C30266
:1008E000892B8A2B8B2B09F484CF0E941D02009147
:1008F000C0021091C1022091C2023091C3026C1952
:100900007D098E099F09061717072807390708F080
:1009100070CF8091BF020E94C703C0E0CFCF85EEA9
:10092000B5CF8091C0029091C102A091C202B09156
:10093000C302892B8A2B8B2B09F4AECF0E941D0298
:100940000091C0021091C1022091C2023091C302F5
:100950006C197D098E099F090617170728073907A3
:1009600008F09ACFD6CF91919D938F5FA5CF089530
:10097000E091770280917602E81730F4F0E0E256D9
:10098000FD4F808190E008958FEF9FEF0895909143
:100990007702809176022FEF3FEF981748F4E92F06
:1009A000F0E0E256FD4F208130E09F5F90937702A8
:1009B000C90108958091760290917702891B990B65
:1009C0000895CF92DF92EF92FF920F931F93CF93F0
:1009D000DF937C01CB018A0120917502222389F0EB
:1009E000EB016B01C40ED51ECC15DD0569F06991D4
:1009F000D701ED91FC910190F081E02DC70109959F
:100A0000F3CF642F0E946B03C801DF91CF911F9138
:100A10000F91FF90EF90DF90CF900895CF93DF93E9
:100A20001F92CDB7DEB76983209175022223F9F0BA
:100A300020917202203258F021E030E0FC01338333
:100A4000228390E080E00F90DF91CF910895809114
:100A50007302E82FF0E0E051FE4F998190838F5FA1
:100A6000809373028093720281E090E0ECCF61E0AA
:100A7000CE0101960E946B03F7CFCF92DF92EF92E7
:100A8000FF920F931F93CF93DF93D091720281E077
:100A9000D13208F09CC0C09174020E941D026B010B
:100AA0007C018091BE0281116CC082E08093BE0205
:100AB00081E080939D028FEF80939C0210929B02B5
:100AC000D0939A02A0EFB1E0E8E7F2E080E0D8131B
:100AD0008DC01092990280919902CC0FC82BC093BF
:100AE000990280919802813009F084C01092980296
:100AF0000E941D026B017C01809199028093BB00D2
:100B00008091C0029091C102A091C202B091C30233
:100B1000892B8A2B8B2BA1F00E941D020091C00211
:100B20001091C1022091C2023091C3026C197D095B
:100B30008E099F09061717072807390708F442C0CE
:100B40008091BC0083FDD8CF85EC8093BC000E94CF
:100B50001D026B017C018091BE02823009F44CC001
:100B600080919C028F3F09F469C080919C02803281
:100B700009F466C080919C02803309F463C084E06C
:100B800026C08091C0029091C102A091C202B09192
:100B9000C302892B8A2B8B2B09F483CF0E941D0261
:100BA0000091C0021091C1022091C2023091C30293
:100BB0006C197D098E099F09061717072807390741
:100BC00008F06FCF8091BF020E94C70385E01092AA
:100BD00073021092720210927502DF91CF911F91F1
:100BE0000F91FF90EF90DF90CF9008959D9191939A
:100BF0008F5F6DCF85EEA9CF8091C0029091C10229
:100C0000A091C202B091C302892B8A2B8B2B09F4CD
:100C1000A2CF0E941D020091C0021091C10220913A
:100C2000C2023091C3026C197D098E099F09061713
:100C300017072807390708F08ECFC4CF80E0C7CF49
:100C400082E0C5CF83E0C3CF0F931F93CF93DF9391
:100C5000EC018B018B859C8521E0209375022EE3AE
:100C6000209374021092730210927202DC01ED91D3
:100C7000FC910190F081E02DDB016C9109958B8551
:100C80009C85DC01ED91FC910190F081E02DD80173
:100C900011966C9109958B859C85DF91CF911F9161
:100CA0000F910C943D05CF93DF9300D0CDB7DEB705
:100CB00090E899838A83BE016F5F7F4F84EE93E053
:100CC0000E9424060F900F90DF91CF910895CF934B
:100CD000DF9300D0CDB7DEB720E429836A83BE015D
:100CE0006F5F7F4F0E94240681E090E00F900F908D
:100CF000DF91CF9108951F93CF93DF93162FC4EE0A
:100D0000D3E0AB85BC859C8121E020937502909354
:100D100074021092730210927202ED91FC9111977D
:100D20000190F081E02D682FCD0109958B859C8580
:100D3000DC01ED91FC910190F081E02D612F09958E
:100D40008B859C85DF91CF911F910C943D0590E0A0
:100D500080E008958F929F92AF92BF92CF92DF92E0
:100D6000EF92FF92CF93DF93C1EFD3E0988121E020
:100D70002093750290937402109273021092720283
:100D8000682F81EA93E00E940E0581EA93E00E94B9
:100D90003D0563E088810E94E8031092770280930A
:100DA000760281EA93E00E94C704092E000CAA0B88
:100DB000BB0B8824982EA92EBA2E81EA93E00E94BC
:100DC000C704092E000CAA0BBB0B6C017D01C828BF
:100DD000D928EA28FB28FE2CED2CDC2CCC2481EA37
:100DE00093E00E94C704BC01990F880B990B6C29F2
:100DF0007D298E299F29DF91CF91FF90EF90DF9081
:100E0000CF90BF90AF909F908F9008958F929F92B8
:100E1000AF92BF92CF92DF92EF92FF920F931F9308
:100E20002091FA032F3F19F48AEF0E94AA0600913D
:100E3000FB031091FC0330E020E0C72ED82EE92EF2
:100E4000FF24E7FCFA94C01AD10AE20AF30A57E039
:100E500095958795779567955A95D1F7000F111F4E
:100E6000221F331F4B015C01801A910AA20AB30AA8
:100E7000A5019401A091FD03B091FE030E94CA1543
:100E80004B015C01FBE0B594A79497948794FA9585
:100E9000D1F7A7019601C701B6010E946E159B010B
:100EA000AC01ACE05595479537952795AA95D1F7B4
:100EB000A091FF03B09100040E94CA159B01AC01F0
:100EC000BEE05595479537952795BA95D1F7280DEA
:100ED000391D4A1D5B1D2093F6033093F7034093A1
:100EE000F8035093F903A5E0B0E00E94BF156058E5
:100EF0007F4F8F4F9F4F672F782F892F992787FD1F
:100F00009A950E94751420E030E048EC52E40E946B
:100F100085161F910F91FF90EF90DF90CF90BF90BB
:100F2000AF909F908F9008952F923F924F925F9233
:100F30006F927F928F929F92AF92BF92CF92DF92E9
:100F4000EF92FF920F931F93CF93DF93CDB7DEB74E
:100F50006B970FB6F894DEBF0FBECDBF0E94060799
:100F60008091FA038F3F39F487EF0E94AA066E8BB7
:100F70007F8B888F998F8091F6039091F703A091D2
:100F8000F803B091F9036C017D01FF0CCC08DC2C57
:100F900076019C01AD016C2D7C2D8C2D9C2D345F38
:100FA00041405109610971098109910929873A87ED
:100FB0004B87652E762E872E982E9B8F5901C42E37
:100FC000D52EE62EF72E082F192F0E941219322E39
:100FD000232E488B598B6A8B7B8B8C8B9D8B30910E
:100FE000040420910304932F990F990B492F592F33
:100FF000692F792F892F0E9412190CE00E940A1A7A
:1010000029833C874A8F5D876E877F87582E492EBC
:101010003091060420910504932F990F990BA32C6E
:10102000B22CC888D988EA88FB880C891D89492F89
:10103000592F692F792F892F0E94121908E00E94D9
:10104000231AA980BC84CA8CDD84EE84FF84052D1C
:10105000142D0E94401A70588F4F9F4FE091010449
:10106000F09102045F01D12CC12CE12CF12C8701FD
:10107000E983BA82CB82DC82ED82FE820F831887FD
:10108000C12CD12CE12CF12C00E010E00E941219AF
:1010900001E20E94231A2A8F532E49835C876D87B1
:1010A0007E878F87492EA0E00E94521A09F436C12C
:1010B00030910C0420910B04932F990F990BA32CC2
:1010C000B22CC888D988EA88FB880C891D89492FE9
:1010D000592F692F792F892F0E9412191901488BD6
:1010E000598B6A8B7B8B8C8B9D8B30910A04209162
:1010F0000904932F990F990BA984BA84CB84D62C19
:10110000E72CF82C092D1B8D492F592F692F792F8A
:10111000892F0E94121901E10E940A1A5101C88800
:10112000D988EA88FB880C891D890E94401A5901D8
:101130006A017B01382E192F4E895F89688D798D60
:1011400084E075956795579547958A95D1F780E026
:1011500090E0A0E1B0E0841B950BA60BB70B3C011F
:101160004D01990C6608762C43019C01AD01662D5A
:10117000762D862D962D0FE10E940A1A722E832E4F
:10118000942E5987B62FA72FF82FE92F30910804F6
:1011900020910704932F990F990B492F592F692FED
:1011A000792F892F03E20E940A1A032D0E94401A08
:1011B00059016A017B018C01272D382D492D598554
:1011C0006B2F7A2F8F2F9E2F0E94491AE5E3AE2EA8
:1011D000FCE0BF2EC12CD12CE12CF12C00E010E062
:1011E0000E941219AA8CB52CC980DC84ED84FE847F
:1011F0000F85142D0E946C192F873E8749875A87C7
:101200006B8779838C879D870DE00E94231A922E2D
:10121000832E742E652E562E472E382E292E309171
:10122000120420911104932F990F990BA92CB82C1B
:10123000C72CD62CE52CF42C032D122D492F592F19
:10124000692F792F892F0E9412190E94121909E122
:101250000E94231AAF84BE84C984DA84EB84F980A7
:101260000C851D850E94401A19012A013B014C0181
:101270003091100420910F04932F990F990B492F4F
:10128000592F692F792F892F0E94121903E10E948B
:10129000231A59016A017B018C019101A201B3015A
:1012A000C4010E94401A08E00E94231A59016A01F1
:1012B0007B01E82F192F30910E0420910D04932FFC
:1012C000990F990B492F592F692F792F892F04E0F6
:1012D0000E940A1A0E2F0E94401A0E942D1720E029
:1012E00030E040E85BE30E94B0146B960FB6F894D0
:1012F000DEBF0FBECDBFDF91CF911F910F91FF9049
:10130000EF90DF90CF90BF90AF909F908F907F90A5
:101310006F905F904F903F902F90089560E070E045
:10132000CB01E3CFCF939091FA039F3F51F5682F04
:101330008091F10391E09093750280937402109272
:1013400073021092720281EA93E00E940E0581EA14
:1013500093E00E943D0562E08091F1030E94E80362
:10136000109277028093760281EA93E00E94C7048C
:10137000C82F81EA93E00E94C70420E03C2F282B6D
:10138000392B922F832FCF910895FB0101900020DC
:10139000E9F73197AF01461B570BDC01ED91FC914A
:1013A0000280F381E02D0994CF93DF930E942F03F5
:1013B000EC0166E371E084E093E00E94C5098C0FC4
:1013C0009D1FDF91CF9108958F929F92AF92BF9210
:1013D000CF92DF92EF92FF920F931F93CF93DF9301
:1013E000CDB7DEB7A1970FB6F894DEBF0FBECDBF65
:1013F0006B017C01F7FE43C06DE284E093E00E9444
:10140000E2028C0122273327A9012C193D094E093C
:101410005F0919A2CE0181967C019AE0892E912C58
:10142000A12CB12CCA01B901A50194010E947E151D
:10143000605DF70162937F0121153105410551057A
:1014400089F790E080E0309729F0BF0184E093E0D5
:101450000E94C509800F911FA1960FB6F894DEBFB8
:101460000FBECDBFDF91CF911F910F91FF90EF90F5
:10147000DF90CF90BF90AF909F908F900895AC0178
:101480009B0119A28E010F5D1F4F8AE0C82ED12C3F
:10149000E12CF12CCA01B901A70196010E947E1529
:1014A000605DF80162938F012115310541055105F9
:1014B00089F790E080E0309779F2BF0184E093E013
:1014C0000E94C509C9CFCF92DF92EF92FF926B01C4
:1014D0007C018FE092E00E942F0364EC72E084E0D4
:1014E00093E00E94C50983E092E00E942F0361E02F
:1014F00070E080E090E00E94E40989EF91E00E94B2
:101500002F03C701B6010E94E40985EF91E0FF9027
:10151000EF90DF90CF900C94D4098CEE91E00E9474
:101520002F0364EC72E084E093E00E94C50980EE32
:1015300091E00E942F0361E070E080E090E00E9463
:10154000E4098FEC91E00C94D4090F931F93CF938F
:10155000C82F8B0186EC91E00E942F0364EC72E0AF
:1015600084E093E00E94C5098AEB91E00E942F037A
:101570006C2FCC0F770B880B990B0E94E4098FEA34
:1015800091E00E942F03C8010E942F038AEA91E094
:10159000CF911F910F910C94D409EF92FF920F936A
:1015A0001F93CF93DF9300D0CDB7DEB77B01FC0153
:1015B00001900020E9F731978F01081B190BA80152
:1015C000BC0184EC92E00E946D1A892B99F44AE0E8
:1015D00050E0BE016F5F7F4FC8018C539D4F0E944A
:1015E0005013F70171836083E981FA8181E0908172
:1015F000993209F080E00F900F90DF91CF911F9109
:101600000F91FF90EF900895CF92DF92EF92FF92AB
:101610000F931F93CF93DF9300D0CDB7DEB76B014D
:101620007A01FC0101900020E9F731978F01081B36
:10163000190BA801BC0184EC92E00E946D1A892B61
:1016400011F080E024C04AE050E0BE016F5F7F4FA0
:10165000C8018C539D4F0E945013F6017183608323
:1016600089819A81FC0120812C3259F74AE050E0AF
:10167000BE016F5F7F4F01960E945013F701718387
:101680006083E981FA8181E090819932D1F60F90EF
:101690000F90DF91CF911F910F91FF90EF90DF900E
:1016A000CF900895CF93DF93C091EE01C111D8C0C0
:1016B00086E78093F1038091FA038F3F09F0CBC056
:1016C0000E94B0038091FA038F3F11F58091F103DE
:1016D00091E09093750280937402109273021092BD
:1016E000720260ED81EA93E00E940E0581EA93E0C8
:1016F0000E943D0561E08091F1030E94E803109291
:1017000077028093760281EA93E00E94C704D82F83
:10171000D83509F0A0C088E80E9492099093FC0394
:101720008093FB038AE80E9492099093FE038093C2
:10173000FD038CE80E949209909300048093FF03BC
:101740008EE80E949209909302048093010480E93C
:101750000E949209909304048093030482E90E94FA
:101760009209909306048093050484E90E949209EB
:10177000909308048093070486E90E94920990934D
:101780000A048093090488E90E94920990930C044A
:1017900080930B048AE90E94920990930E0480932F
:1017A0000D048CE90E9492099093100480930F0419
:1017B0008EE90E9492099093120480931104809103
:1017C000FA038F3FC9F48091F10391E09093750281
:1017D00080937402109273021092720264EF81EA95
:1017E00093E00E940E056FE381EA93E00E940E05EC
:1017F00081EA93E00E943D050E94940720E030E0DA
:1018000048EC52E40E94851620E030E54DE754E4B0
:101810000E94851621E03EED42E45EE30E948117BE
:101820009B01AC0160E070E080E89FE30E94181625
:1018300020E03AE24DE257E40E94B0146093610266
:1018400070936202809363029093640281E08093BC
:10185000EE01C1E005C06AEE70E081E00E94A50AD9
:101860008C2FDF91CF91089585ED8093BC008091FE
:10187000C0029091C102A091C202B091C30207962A
:10188000A11DB11D23E0B695A795979587952A953B
:10189000D1F72091BC0024FD03C01092BE02089530
:1018A0004091C0025091C1026091C2027091C30286
:1018B000452B462B472B69F30097A105B10541F055
:1018C0002AE22A95F1F700C00197A109B109E1CFF9
:1018D0008091BF020C94C7031F920F920FB60F9214
:1018E00011242F933F938F939F93AF93BF93809136
:1018F000660290916702A0916802B09169023091EE
:10190000650223E0230F2D3758F50196A11DB11D67
:10191000209365028093660290936702A093680209
:10192000B093690280916A0290916B02A0916C025F
:10193000B0916D020196A11DB11D80936A02909332
:101940006B02A0936C02B0936D02BF91AF919F9117
:101950008F913F912F910F900FBE0F901F90189570
:1019600026E8230F0296A11DB11DD2CF1F920F9220
:101970000FB60F9211242F933F934F935F936F9362
:101980007F938F939F93AF93BF93EF93FF9384E0E5
:1019900093E00E94C002FF91EF91BF91AF919F91A0
:1019A0008F917F916F915F914F913F912F910F9008
:1019B0000FBE0F901F9018951F920F920FB60F92A7
:1019C00011242F938F939F93EF93FF93E091140330
:1019D000F09115038081E0911A03F0911B0382FDC1
:1019E0001BC0908180911D038F5F8F7320911E0318
:1019F000821741F0E0911D03F0E0EC5FFC4F958F02
:101A000080931D03FF91EF919F918F912F910F90E4
:101A10000FBE0F901F9018958081F4CF1F920F92E8
:101A20000FB60F9211242F933F934F935F936F93B1
:101A30007F938F939F93AF93BF93EF93FF93809187
:101A4000B900887F803609F44AC0F0F5883209F47D
:101A5000A7C018F5803109F49BC0B8F4882309F4B5
:101A6000F9C0883009F494C0FF91EF91BF91AF9114
:101A70009F918F917F916F915F914F913F912F91A6
:101A80000F900FBE0F901F901895883109F488C0F1
:101A9000803251F780939C0214C0803409F49DC0B9
:101AA00040F48033B9F38833F9F680939C0285ECD7
:101AB000B0C0803509F485C0883509F496C08834F3
:101AC00099F60E94340CD0CF883909F48CC038F5CF
:101AD000883729F050F4883611F0803729F683E0F2
:101AE0008093BE021092530257C0883809F47BC01D
:101AF000803919F0803809F0B7CF809153028032D5
:101B000008F071C0E091530281E08E0F8093530280
:101B10008091BB00F0E0ED5CFD4F80833DC0803BD9
:101B200039F0E0F4803A09F479C0883A09F09CCFA2
:101B300084E08093BE021092320210923102E09152
:101B40007002F091710209958091310281110FC0EC
:101B500081E0809331021092110209C0803C09F4A7
:101B6000A6CF883C09F4A3CF883B09F07DCFE09154
:101B7000320281E08E0F80933202F0E0EF5EFD4F83
:101B800080818093BB00909132028091310229C004
:101B9000809199028093BB0085EC8093BC0064CF58
:101BA00090919B0280919A02981758F5E0919B02C0
:101BB00081E08E0F80939B02F0E0E858FD4F80811A
:101BC000E9CFE0919B0281E08E0F80939B02809190
:101BD000BB00F0E0E858FD4F808390919B0280911C
:101BE0009A029817C8F285E8D8CFE0919B0281E06D
:101BF0008E0F80939B028091BB00F0E0E858FD4F70
:101C0000808380919D0281115CCF81E08093980256
:101C100084EA8093BC001092BE0226CF85EC8093AC
:101C2000BC001092BE0280915302803230F4E091E9
:101C30005302F0E0ED5CFD4F10826091530270E0C2
:101C4000E0916E02F0916F0283E392E009951092A9
:101C500053020ACF10929C0234CF1F920F920FB6FC
:101C60000F9211242F933F934F935F936F937F9322
:101C70008F939F93AF93BF93CF93DF93EF93FF9394
:101C80008091EF01C091D103D0E087FF24C0109272
:101C90008500109284008091EF018F5F8093EF01A7
:101CA0008091EF01082E000C990B8C179D0724F4EE
:101CB0008091EF018C30C4F1809184009091850077
:101CC000049680349C4908F47AC0809184009091F5
:101CD0008500049676C08091EF01082E000C990BC8
:101CE0008C179D07C4F6E091EF018E2FEE0F990B34
:101CF000FC01EE0FFF1FE80FF91FE355FC4F808139
:101D000086FFC9CFE091EF018E2FEE0F990BFC01FA
:101D1000EE0FFF1FE80FF91FE355FC4F808160E0D5
:101D20008F730E946201B7CF2091840030918500AB
:101D3000E091EF018E2FEE0F990BFC01EE0FFF1FCC
:101D4000E80FF91FE355FC4F81819281820F931FA9
:101D50009093890080938800E091EF018E2FEE0F21
:101D6000990BFC01EE0FFF1FE80FF91FE355FC4F25
:101D7000808186FF11C0E091EF018E2FEE0F990B4D
:101D8000FC01EE0FFF1FE80FF91FE355FC4F8081A8
:101D900061E08F730E946201FF91EF91DF91CF911B
:101DA000BF91AF919F918F917F916F915F914F9173
:101DB0003F912F910F900FBE0F901F90189580E4C8
:101DC0009CE990938900809388008FEF8093EF01C6
:101DD000E3CF109207031092060388EE93E0A0E091
:101DE000B0E08093080390930903A0930A03B09393
:101DF0000B032AE031E0309305032093040325EC24
:101E000030E0309311032093100324EC30E0309342
:101E100013032093120320EC30E03093150320933A
:101E2000140321EC30E0309317032093160322ECC7
:101E300030E0309319032093180326EC30E0309300
:101E40001B0320931A0310921D0310921E0310927D
:101E50001F03109220031092A4031092A3038093F7
:101E6000A5039093A603A093A703B093A8038CE1C6
:101E700091E09093A2038093A1038FEF8093FA03E4
:101E80001092E7031092E6038EE291E09093E5034F
:101E90008093E4031092E9031092EA031092EB039B
:101EA0001092EC031092ED031092EE03E2EDF3E0DA
:101EB00024EE33E04FEF68EB7BE08091D1038C3070
:101EC000B0F491E0980F9093D103808390E0DC010F
:101ED000AA0FBB1FA80FB91FA355BC4F12967C9326
:101EE0006E93119733962E173F0739F70895408365
:101EF000F9CFCF93DF93CDB7DEB7A4970FB6F894A1
:101F0000DEBF0FBECDBF789484B5826084BD84B53A
:101F1000816084BD85B5826085BD85B5816085BDE4
:101F200080916E00816080936E001092810080919C
:101F30008100826080938100809181008160809324
:101F40008100809180008160809380008091B10049
:101F500084608093B1008091B00081608093B00074
:101F600080917A00846080937A0080917A00826008
:101F700080937A0080917A00816080937A008091CA
:101F80007A00806880937A001092C100E091140377
:101F9000F091150312E01083E0911003F09111030A
:101FA0001082E0911203F091130380E1808310927C
:101FB0001C03E0911803F091190386E08083E091FF
:101FC0001603F0911703808180618083E0911603EE
:101FD000F0911703808188608083E0911603F0916F
:101FE0001703808180688083E0911603F0911703C6
:101FF00080818F7D808384E190E0A0E0B0E08093D9
:10200000080390930903A0930A03B0930B038AE09B
:1020100091E00E94D4090E94B00364E070E082ED78
:1020200093E00E94C10165E070E085ED93E00E94BD
:10203000C10181EA93E09093F0038093EF030E9443
:10204000B0038091E903982F98609093E90310936F
:10205000ED031092EE03EBE3FDE03197F1F78862B8
:102060000E9453068BE496E40197F1F78091E9030F
:1020700080620E94530683E592E00197F1F7809118
:10208000E90380620E9453068091E90380620E9406
:10209000530684E08093EA038CE00E94530681E0BB
:1020A0000E9453068BE39FE10197F1F71093EB0336
:1020B00086E00E9453068091EF039091F00321E0A7
:1020C0002093750210E31093740210927302109221
:1020D00072020E943D05811189C01093E80367E0F8
:1020E0000E947B068BE193E00197F1F765E184E0C4
:1020F0000E947B068091E8036FEF803309F084C073
:1021000086E00E947B066FEF87E00E947B066FEF00
:1021100088E00E947B0658E8852E912C64EB462EC1
:10212000512C612C712C4BE3242E4FE1342E84E092
:1021300093E00E94A002892B09F4CBC084E093E0D5
:102140000E947E028D3099F3E09154028A3009F0AA
:1021500065C0F0E0EC53FD4F108210925402AE01C6
:102160004F5D5F4FBE016D5D7F4F89E391E00E943F
:10217000040B811163C0BE016D5D7F4F87E491E068
:102180000E94CD0A882309F45EC060E08BA10E9402
:1021900090012BA13CA13327F901EA56FE4F84910F
:1021A000F901EE57FE4F1491F901E259FE4F0491E7
:1021B00070E060E0002399F081110E943901E02F66
:1021C000F0E0EE0FFF1FE15EFE4FA591B491EC91A0
:1021D0001E2391E080E009F490E0692F782F072E0C
:1021E000000C880B990B0E94630A73C082E68093EF
:1021F000E80360E080E00E947B066FEF88E00E94C9
:102200007B0660E281E074CF84E00E947B066FEF82
:1022100083E00E947B066FEF82E07BCFEF3348F4D0
:1022200091E09E0F90935402F0E0EC53FD4F8083B9
:102230007ECF109254021092C40279CF69A18BA173
:102240000E94620144C0AE014F5D5F4FBE016D5DF3
:102250007F4F84E591E00E94040B882309F465C058
:1022600009A11AA1EBA0FCA061E08E2D0E949001B3
:102270000115110519F460E08E2DE2CF0F3F110515
:1022800011F461E0F9CFF701FF27EA56FE4FE49120
:10229000E33089F140F4E130B1F0E23039F1003857
:1022A00011057CF7E8CFE73081F1E830B1F1E43097
:1022B000B1F78091800080628093800010938B0042
:1022C00000938A0004C084B5806884BD07BD0E9465
:1022D0008D0A40E050E0452B09F429CF0E94AC0262
:1022E000882309F420CF0E9400001DCF84B58062AE
:1022F00084BD08BDECCF8091800080688093800011
:102300001093890000938800E2CF8091B00080682C
:102310008093B0000093B300DACF8091B000806268
:102320008093B0000093B400D2CFBE016D5D7F4FAB
:1023300081E691E00E94CD0A882321F18BA19CA126
:1023400086309105C8F480509F4FFC0180818E300B
:1023500008F08E508770806480937C0080917A00B2
:10236000806480937A0080917A0086FDFCCF609132
:1023700078007091790033CF62E471E08FEF0E94B2
:10238000A50AA7CFAE014F5D5F4FBE016D5D7F4FC8
:102390008DE691E00E94040B882391F08BA199A116
:1023A00091110CC0806890E899838A83BE016F5FA9
:1023B0007F4F84EE93E00E94240689CF806CF3CF98
:1023C0004DE050E06FE771E084EC92E00E946D1AFE
:1023D000892B71F5E1EDF2E001900020E9F78F0122
:1023E000025D12400230110518F101501109F80187
:1023F000EF52FD4F80818932D9F40032110510F07F
:102400000FE110E0A80161ED72E0CE0101960E949B
:102410007B1AE1E0F0E0EC0FFD1FE00FF11F1082EE
:10242000BE016F5F7F4F84EE93E00E94C5094FCFDE
:102430006DE871E084EC92E00E94641A892B39F413
:1024400081E00E945306C1010197F1F740CF6CE98A
:1024500071E084EC92E00E94641A892B81F40E945E
:10246000520B882309F435CF0E94060720E030E0A4
:1024700048EC52E40E94B0140E94F716B4CE65EB0B
:1024800071E084EC92E00E94641A892B41F40E946E
:10249000520B882309F41DCF0E949407EDCF6BECFB
:1024A00071E084EC92E00E94641A892B91F50E94FD
:1024B000520B882309F40DCF0E94940720E030E0EE
:1024C00048EC52E40E94851620E030E54DE754E4E4
:1024D0000E94851621E03EED42E45EE30E948117F2
:1024E0009B01AC0160E070E080E89FE30E94181659
:1024F00020E03AE24DE257E40E94B01420916102DC
:102500003091620240916302509164020E94181659
:10251000B3CFAE014F5D5F4FBE016D5D7F4F81EE6A
:1025200091E00E94040B882309F4B7C009A11AA105
:10253000CBA0DCA04C2D6BE572E0DB0190E080E0ED
:102540007C012D91222339F09C012B5A3D4FF9013A
:1025500020814217F9F001968630910589F790E0C5
:1025600080E07C01FB012191BF01211190C0B601E7
:102570007727880F991F8E0D9F1D8E529C4F0E94AA
:10258000C10181E0F701E55AFD4F8083F701EB5A65
:10259000FD4FC082003252E015070CF03EC0F7013B
:1025A000EE0FFF1FEE0DFF1DEE52FC4F81819401D7
:1025B000281B310987FD3395220F331F220F331F4C
:1025C0005901330FCC08DD08828128E532E0281B51
:1025D000310987FD3395220F331F220F331F032E3E
:1025E000000C440B550B2A193B094C095D09D80115
:1025F000053B110514F0A4EBB0E0B7FF02C0B0E05A
:10260000A0E00E94CA15A30192010E94A0158901B1
:102610009A010A0D1B1D2C1D3D1DF701EE0FFF1F1A
:10262000EE0DFF1DEE52FC4F20812C3008F04FCEF6
:102630008181A401481B510987FD5395CA01880F68
:10264000991F880F991F0817190784F08281E8E500
:10265000F2E0E81BF10987FDF395CF01880F991F80
:10266000880F991F081719070CF4C8010297880FE3
:10267000991F4FB7F89430E0F901EE0FFF1FE20FFA
:10268000F31FE355FC4F928381834FBF20CE019609
:102690008630910509F065CF1ACE69E271E06ECE01
:1026A000B0E0A0E0E6E5F3E10C94D3155C016B012A
:1026B0007A016115710519F0FB0191838083E114A2
:1026C000F10451F0C7010297839730F040E030E009
:1026D00020E090E072C05E01E5012196F5011081D5
:1026E000812F90E00E946714892BA9F71D3201F514
:1026F0002196F501118101E0E114F10409F4DAC039
:10270000F0E1EF16F10409F082C0103359F488812A
:102710008F7D883509F076C0198122960260F0E13C
:10272000EF2EF12C812C912CA12C88E0B82E8CC09E
:102730001B3221F4E5012296F501118100E0DCCF86
:10274000EAE0EE16F10409F4BBC0F0E1EF16F10483
:1027500009F06DC0E7CF78E0E72EF12C812C912CA9
:10276000A12C60E1B62E70C03FE9310F3A3128F458
:1027700039EA332E80C021E09AC0302F3170C11465
:10278000D10431F0222309F12197F601D183C083CE
:1027900027FF21C060E070E080E090E8311104C0C4
:1027A0006FEF7FEF8FEF9FE722E230E030931D0461
:1027B00020931C04462F372F282F642F732F822F2E
:1027C000CDB7DEB7E1E10C94EF1501FF04C022970D
:1027D000F601D183C083332341F0909580957095A5
:1027E00061957F4F8F4F9F4FE5CF97FFE3CF82E2F9
:1027F00090E090931D0480931C046FEF7FEF8FEFA8
:102800009FE7D8CF10E3E114F10409F4A4CF28E046
:10281000E216F10409F4A2CF0CF092CF812C912C96
:10282000A12CE0E4BE2E82E0E816F10469F060E03D
:1028300070E080E090E897010F2C000C440B550BE2
:102840000E947E1549015A0120E060E070E0CB0152
:1028500027010F2C000C66087708FE0150ED352E7D
:10286000310E39E0331540F43FEB310F3A3108F0C7
:102870007BCF49EC342E310E3E141F040CF07DCF7B
:1028800027FD15C086169706A806B90678F0A3019D
:1028900092010E946E15630D711D811D911D6130A5
:1028A0007105810520E8920708F465CF2FEF219686
:1028B0001081D3CF103309F42ACF2AE0E22EF12C75
:1028C0009CEC892E982CA82C9CE0B92EBDCF9111A0
:1028D0000C947014803219F089508550C8F708950F
:1028E000992788270895E89409C097FB3EF49095AE
:1028F0008095709561957F4F8F4F9F4F9923A9F0D9
:10290000F92F96E9BB279395F69587957795679567
:10291000B795F111F8CFFAF4BB0F11F460FF1BC0AB
:102920006F5F7F4F8F4F9F4F16C0882311F096E93E
:1029300011C0772321F09EE8872F762F05C06623EC
:1029400071F096E8862F70E060E02AF09A95660FA5
:10295000771F881FDAF7880F9695879597F908955E
:102960000E94C3140C9434150E94261538F00E945E
:102970002D1520F0952311F00C941D150C942315A2
:1029800011240C9468150E94451570F3959FC1F3AE
:10299000950F50E0551F629FF001729FBB27F00D0D
:1029A000B11D639FAA27F00DB11DAA1F649F662762
:1029B000B00DA11D661F829F2227B00DA11D621FB1
:1029C000739FB00DA11D621F839FA00D611D221F6B
:1029D000749F3327A00D611D231F849F600D211D4F
:1029E000822F762F6A2F11249F5750409AF0F1F0D2
:1029F00088234AF0EE0FFF1FBB1F661F771F881F3B
:102A000091505040A9F79E3F510580F00C941D1540
:102A10000C9468155F3FE4F3983ED4F38695779560
:102A20006795B795F795E7959F5FC1F7FE2B880FE0
:102A3000911D9695879597F9089597F99F6780E876
:102A400070E060E008959FEF80EC089500240A9400
:102A50001616170618060906089500240A94121679
:102A60001306140605060895092E0394000C11F4AC
:102A7000882352F0BB0F40F4BF2B11F460FF04C059
:102A80006F5F7F4F8F4F9F4F089557FD9058440FB2
:102A9000551F59F05F3F71F04795880F97FB991FBD
:102AA00061F09F3F79F0879508951216130614067A
:102AB000551FF2CF4695F1DF08C016161706180607
:102AC000991FF1CF86957105610508940895E894E2
:102AD000BB2766277727CB0197F90895DB018F93F2
:102AE0009F930E94BF15BF91AF91A29F800D911D32
:102AF000A39F900DB29F900D11240895A1E21A2E6C
:102B0000AA1BBB1BFD010DC0AA1FBB1FEE1FFF1F91
:102B1000A217B307E407F50720F0A21BB30BE40BE1
:102B2000F50B661F771F881F991F1A9469F7609528
:102B30007095809590959B01AC01BD01CF010895E2
:102B4000052E97FB1EF400940E94B71557FD07D081
:102B50000E947E1507FC03D04EF40C94B7155095D7
:102B60004095309521953F4F4F4F5F4F0895909579
:102B70008095709561957F4F8F4F9F4F08950E946C
:102B80000916A59F900DB49F900DA49F800D911DD7
:102B900011240895B7FF0C94BF150E94BF15821B26
:102BA000930B08952F923F924F925F926F927F9274
:102BB0008F929F92AF92BF92CF92DF92EF92FF924D
:102BC0000F931F93CF93DF93CDB7DEB7CA1BDB0BF9
:102BD0000FB6F894DEBF0FBECDBF09942A8839889E
:102BE00048885F846E847D848C849B84AA84B984A5
:102BF000C884DF80EE80FD800C811B81AA81B981B1
:102C0000CE0FD11D0FB6F894DEBF0FBECDBFED01C4
:102C10000895A29FB001B39FC001A39F700D811DB5
:102C20001124911DB29F700D811D1124911D0895D5
:102C30005058BB27AA270E9430160C9434150E94C6
:102C4000261538F00E942D1520F039F49F3F19F415
:102C500026F40C9423150EF4E095E7FB0C941D1557
:102C6000E92F0E94451558F3BA17620773078407C6
:102C7000950720F079F4A6F50C9467150EF4E0950D
:102C80000B2EBA2FA02D0B01B90190010C01CA0126
:102C9000A0011124FF27591B99F0593F50F4503ED1
:102CA00068F11A16F040A22F232F342F4427585FC3
:102CB000F3CF469537952795A795F0405395C9F7DB
:102CC0007EF41F16BA0B620B730B840BBAF0915093
:102CD000A1F0FF0FBB1F661F771F881FC2F70EC032
:102CE000BA0F621F731F841F48F487957795679505
:102CF000B795F7959E3F08F0B0CF9395880F08F0F1
:102D00009927EE0F9795879508950E9499160C9430
:102D100034150E942D1558F00E94261540F029F414
:102D20005F3F29F00C941D1551110C9468150C94FB
:102D300023150E94451568F39923B1F3552391F3A8
:102D4000951B550BBB27AA2762177307840738F01A
:102D50009F5F5F4F220F331F441FAA1FA9F335D077
:102D60000E2E3AF0E0E832D091505040E695001C2B
:102D7000CAF72BD0FE2F29D0660F771F881FBB1FE5
:102D8000261737074807AB07B0E809F0BB0B802DC3
:102D9000BF01FF2793585F4F3AF09E3F510578F0EF
:102DA0000C941D150C9468155F3FE4F3983ED4F322
:102DB000869577956795B795F7959F5FC9F7880FC3
:102DC000911D9695879597F90895E1E0660F771F15
:102DD000881FBB1F621773078407BA0720F0621BA6
:102DE000730B840BBA0BEE1F88F7E09508950E94D1
:102DF000FE166894B1110C94681508950E944D1543
:102E000088F09F5798F0B92F9927B751B0F0E1F0AB
:102E1000660F771F881F991F1AF0BA95C9F714C05B
:102E2000B13091F00E946715B1E008950C946715D8
:102E3000672F782F8827B85F39F0B93FCCF3869594
:102E400077956795B395D9F73EF4909580957095F1
:102E500061957F4F8F4F9F4F089597FB16F40E9407
:102E600071170C943417E894F92F96EBFF2381F037
:102E7000121613061406440B9395F69587957795CD
:102E8000679557954040FF23B9F71BC099270895D0
:102E9000882351F49850D2F7872B762F652F542F23
:102EA000432F322F20E0B1F3121613061406440B01
:102EB00088233AF09A95440F551F661F771F881F85
:102EC000CAF755234AF4440F551F11F460FF04C09C
:102ED0006F5F7F4F8F4F9F4F880F9695879597F91C
:102EE0000895909580957095609550954095309592
:102EF00021953F4F4F4F5F4F6F4F7F4F8F4F9F4FEA
:102F00000895FA01EE0FFF1F309621053105A1F15A
:102F10006115710561F48038BFE39B0749F168943E
:102F20009038810561F08038BFEF9B0741F099230D
:102F30004AF5FF3FE1053105210519F1E8940894B0
:102F4000E795D901AA2329F4AB2FBE2FF85FD0F360
:102F500010C0FF5F70F4A695E0F7F73950F019F054
:102F6000FF3A38F49F779F930DD00F9007FC90584D
:102F7000089546F00C94231560E070E080E89FE32C
:102F800008954FE79F775F934F933F932F930E944E
:102F90007C182F913F914F915F910E94B0140C9437
:102FA000D91729F416F00C941D150C9467150C9480
:102FB00023150E944D15A8F39638A0F707F80F9235
:102FC000E8942BE33AEA48EB5FE70E94C6140F92BD
:102FD0000F920F924DB75EB70F920E94C418E8E6A9
:102FE000F0E00E940B184F915F91EF91FF91E595F2
:102FF000EE1FFF1F49F0FE57E0684427EE0F441F05
:10300000FA95E1F74195550B0E943E180F9007FE87
:103010000C9432180895DF93CF931F930F93FF9270
:10302000EF92DF927B018C01689406C0DA2EEF01EB
:103030000E94C314FE01E894A59125913591459114
:103040005591A6F3EF010E943016FE019701A801E9
:10305000DA9469F7DF90EF90FF900F911F91CF9175
:10306000DF9108959B01AC0160E070E080E89FE390
:103070000C9485160C941D150C94F8180E944D158F
:10308000D8F39923C9F3940F511DA3F391505040E5
:1030900094F059F0882332F0660F771F881F915003
:1030A0005040C1F79E3F51052CF7880F911D969512
:1030B000879597F908955F3FACF0983E9CF0BB2749
:1030C000869577956795B79508F4B1609395C1F7A4
:1030D000BB0F58F711F460FFE8CF6F5F7F4F8F4F42
:1030E0009F4FE3CF0C94681516F00C94F8180C94CD
:1030F000231568940C941D150E944D15A8F399236F
:10310000C1F3AEF3DF93CF931F930F93FF92C92FB9
:10311000DD2788232AF02197660F771F881FDAF7AB
:1031200020E030E040E85FEB9FE3883920F0803E0C
:1031300038F021968F770E941916E0E9F0E004C07C
:103140000E941916EDEBF0E00E940B188B01BE01F6
:10315000EC01FB2E6F5771097595771F880B990B42
:103160000E94751428E132E741E35FE30E94C31433
:10317000AF2D9801AE01FF900F911F91CF91DF917C
:103180000E9430160C943415FA01DC01AA0FBB1F03
:103190009B01AC01BF5728F42227332744275078DE
:1031A00020C0B75190F4AB2F002446953795279552
:1031B000011CA395D2F3002071F0220F331F441F8E
:1031C000B395DAF30ED00C94181661307105A0E8AF
:1031D0008A07B94630F49B01AC0166277727882718
:1031E0009078309621F02083318342835383089571
:1031F0009F3F31F0915020F4879577956795B7956B
:10320000880F911D9695879597F90895991B79E0F8
:1032100004C0991F961708F0961B881F7A95C9F766
:1032200080950895DF93CF931F930F939A9DF02D70
:10323000219FF00D8B9DF00D8A9DE02DF10D039FD8
:10324000F00D029FE00DF11D4E9DE00DF11D5E9D04
:10325000F00D4F9DF00D7F936F93BF92AF925F93F0
:103260004F93D5010E9409168B01AC01D7010E9432
:103270000916EB01E80FF91FD6010E9461192F9181
:103280003F91D6010E940916C60FD71FE81FF91FEC
:10329000AF91BF910E9461192F913F910E94091631
:1032A000C60FD71FE81FF91FD6010E940916E60FA7
:1032B000F71F9801BE01CF010F911F91CF91DF91B0
:1032C00008950E940916460F571FC81FD91F08F4FA
:1032D00031960895689401C0E894F92FF12B12F00B
:1032E0000C949E19A0E0B0E0E8E7F9E10C94D81541
:1032F000092E059422F40E94FA19112392F4F0E8A1
:103300000F26FFEFE094F09400951095B094C094D0
:10331000D094A194BF0ACF0ADF0AEF0AFF0A0F0B6D
:103320001F0B0E94A91907FC0E94FA19CDB7DEB73E
:10333000ECE00C94F415689401C0E8948F929F928D
:10334000CF93DF930E94A919DF91CF919F908F9027
:10335000089588249924F401E401B0E49F93AA27F6
:103360009A158B049C04ED05FE05CF05D007A10737
:1033700098F4AD2FDC2FCF2FFE2FE92D982C892E1E
:10338000982F872F762F652F542F432F322F2227E8
:10339000B85031F7BF9127C01B2EBF91BB27220F1A
:1033A000331F441F551F661F771F881F991F881CD6
:1033B000991CEE1FFF1FCC1FDD1FAA1FBB1F8A1405
:1033C0009B04EC05FD05CE05DF05A007B10748F01D
:1033D0008A189B08EC09FD09CE09DF09A00BB10B87
:1033E00021601A94E1F62EF49401AF01BE01CD01E3
:1033F000000C089560957095809590953095409556
:10340000509521953F4F4F4F5F4F6F4F7F4F8F4FDD
:103410009F4F0895002E083090F0982F872F762F19
:10342000652F542F432F322F22270850F4CF220F1D
:10343000331F441F551F661F771F881F991F0A954A
:10344000B2F7002D089597FD1094002E083098F0E3
:103450000850232F342F452F562F672F782F892F71
:10346000912DF4CF159497958795779567955795F6
:103470004795379527950A95AAF71124002D0895A9
:103480002A0D3B1D4C1D5D1D6E1D7F1D801F911F54
:1034900008952A193B094C095D096E097F09800BC3
:1034A000910B08950024A7FD00942A1730054005CC
:1034B000500560057005800590050895EE0FFF1F0B
:1034C0000590F491E02D0994FB01DC018D910190B0
:1034D00080190110D9F3990B0895FB01DC014150CB
:1034E000504030F08D910190801919F40020B9F707
:1034F000881B990B0895FB01DC014150504048F0B6
:1035000001900D920020C9F701C01D92415050401A
:08351000E0F70895F894FFCFE5
:103518000E0F1011121300000000E20242026F02A7
:103528004A03A0027E029202000000000E05E10498
:10353800A706B704DA04C704B80400000000670649
:103548004202A7066A030D0A006469676974616C20
:10355800577269746528006469676974616C52659B
:1035680061642800616E616C6F67577269746528C1
:1035780000616E616C6F675265616428006C6364FA
:103588005267622E736574437572736F7228006C8C
:1035980063645267622E7072696E7428006C63648B
:1035A8005267622E636C656172282900626D703201
:1035B80038302E7265616454656D7065726174751A
:1035C8007265282900626D703238302E7265616428
:1035D8005072657373757265282900626D70323890
:1035E800302E72656164416C74697475646528294C
:0E35F800007772697465536572766F28000063
:00000001FF
