:100000000C9423010C944B010C944B010C944B0168
:100010000C944B010C944B010C944B010C944B0130
:100020000C944B010C944B010C944B010C9407075E
:100030000C944B010C944B010C944B010C944B0110
:100040000C9456110C944B010C94C7140C94F91495
:100050000C944B010C944B010C944B010C944B01F0
:100060000C94DA090C944B0107634236B79BD8A76E
:100070001A39685618AEBAAB558C1D3CB7CC5763CD
:10008000BD6DEDFD753EF6177231BF000000803F7B
:1000900008000000BE922449123EABAAAA2ABECD97
:1000A000CCCC4C3E00000080BEABAAAAAA3E000009
:1000B0000000BF000000803F000000000008417801
:1000C000D3BB4387D1133D190E3CC3BD4282AD2B38
:1000D0003E68EC8276BED98FE1A93E4C80EFFFBE30
:1000E00001C4FF7F3F000000000000407A10F35A77
:1000F00000A0724E18090010A5D4E80000E8764868
:10010000170000E40B54020000CA9A3B000000E113
:10011000F505000080969800000040420F000000A6
:10012000A08601000000102700000000E803000086
:1001300000006400000000000A0000000000010050
:10014000000000002C76D888DC674F0823DFC1DF71
:10015000AE59E1B1B796E5E3E453C63AE651997674
:1001600096E8E6C28426EB898C9B62ED407C6FFCAE
:10017000EFBC9C9F40F2BAA56FA5F490055A2AF7F0
:100180005C936B6CF9676DC11BFCE0E40D47FEF5F9
:1001900020E6B500D0ED902E030094357705008061
:1001A000841E080000204E0A000000C80C333333C0
:1001B000330F986E12831141EF8D2114893BE65560
:1001C00016CFFEE6DB18D1844B381BF77C1D901D43
:1001D000A4BBE424203284725E228100C9F124ECA5
:1001E000A1E53D270000000800020100000304070C
:1001F0000000000000000000010204081020408000
:100200000102040810200102040810200404040460
:1002100004040404020202020202030303030303B0
:100220000000000023002600290000000000250037
:1002300028002B0000000000240027002A00C4042E
:10024000E20B2915DA0411241FBECFEFD8E0DEBF80
:10025000CDBF12E0A0E0B1E0E0E1FAE402C0059019
:100260000D92A039B107D9F724E0A0E9B2E001C0AE
:100270001D92A936B207E1F711E0C2E2D1E004C055
:100280002197FE010E94E624CF31D107C9F70E94D1
:10029000DA190C94DD1F0C9400000F931F93CF9379
:1002A000DF93CDB7DEB72C970FB6F894DEBF0FBE45
:1002B000CDBF8C01AC01990F660B770B26E087EC64
:1002C00093E00E9462144AE0B801CE0107960E94B2
:1002D000FF1667E071E0CE0101960E94B316BE01E1
:1002E000695F7F4FCE0101960E949C17BC0187EC8D
:1002F00093E00E94A815CE0101960E944516CE01FA
:1003000007960E94451662E370E080E090E00E944C
:10031000D1112C960FB6F894DEBF0FBECDBFDF9182
:10032000CF911F910F910895AF92BF92CF92DF921C
:10033000EF92FF921F93CF93DF93CDB7DEB72C9749
:100340000FB6F894DEBF0FBECDBF7C016B01142F3A
:10035000590167E271E0CE0101960E94B31664E78D
:1003600071E0CE0107960E94B316AE014F5F5F4F5A
:10037000BE01695F7F4FC6010E94D118CE0107966A
:100380000E944516CE0101960E944516612F110F5D
:10039000770B4AE0CE0101960E94FF166AE271E0F7
:1003A000CE0107960E94B316B601CE0107960E94B1
:1003B0009C1763E371E00E94AF17BE016F5F7F4F30
:1003C0000E949C1760E471E00E94AF17B5010E9483
:1003D0009C176BE471E00E94AF17BC01C7010E943B
:1003E000DF16CE0107960E944516CE0101960E94A7
:1003F0004516C7012C960FB6F894DEBF0FBECDBFD1
:10040000DF91CF911F91FF90EF90DF90CF90BF9041
:10041000AF900895CF93DF93CDB7DEB762970FB655
:10042000F894DEBF0FBECDBF6DE471E0CE0107963C
:100430000E94B31662ED72E0CE010D960E94DF16A7
:100440009E01295F3F4F41E0BE01635F7F4FCE01B8
:1004500001960E949401BE016F5F7F4F87EC93E08D
:100460000E94A815CE0101960E944516CE010D9658
:100470000E944516CE0107960E94451662960FB659
:10048000F894DEBF0FBECDBFDF91CF910895CF931B
:10049000DF93CDB7DEB762970FB6F894DEBF0FBE1D
:1004A000CDBFBC01CE0107960E94DF1662ED72E05F
:1004B000CE010D960E94DF169E01295F3F4F41E05D
:1004C000BE01635F7F4FCE0101960E949401BE0181
:1004D0006F5F7F4F87EC93E00E94A815CE010196D5
:1004E0000E944516CE010D960E944516CE01079634
:1004F0000E94451662960FB6F894DEBF0FBECDBFC0
:10050000DF91CF910895EF92FF920F931F93CF93B6
:10051000DF93CDB7DEB7EDB6FEB6FC014481558161
:100520004F5F5F4F2DB73EB7241B350B0FB6F894C6
:100530003EBF0FBE2DBF0DB71EB70F5F1F4F20E090
:1005400030E0B8010E94ED17C8010FB6F894FEBE66
:100550000FBEEDBEDF91CF911F910F91FF90EF90F5
:1005600008952F923F924F925F926F927F928F9257
:100570009F92AF92BF92CF92DF92EF92FF920F9332
:100580001F93CF93DF9300D000D000D0CDB7DEB75C
:100590008C01FC0184809580BC01CE0101960E94F3
:1005A000DF16CE0101960E948302E12CF12C6CE251
:1005B00070E00E94FB1F97012F5F3F4F690100977A
:1005C00019F001967601F3CFCE0101960E944516EF
:1005D00031E4C31635E1D30640F426E02C9DC0017A
:1005E0002D9D900D1124029602C08FEF9FEF0E9467
:1005F000E719FC01C192D1925F013F013FEFE31681
:10060000F30661F062E872E0C3010E94B316F6E0FF
:100610006F0E711C21E0E21AF108F0CFB092D10206
:10062000A092D002CA94CD28F1F460E070E0C80135
:100630000E94C817FC018081823269F4F80164814C
:10064000758161507109C8010E94C817FC01808141
:10065000823209F44DC0B8018091D0029091D1024C
:100660000E94C8169BC0CC24C394D12CE12CF12C41
:10067000512CA12CB12C412C312C340131E0631AC6
:10068000710896E0292EE814F9040CF087C0B70130
:10069000C8010E94EB178C3209F041C051103FC0D5
:1006A0009701442D532DB801CE0101960E948B185D
:1006B0002A9CC0012B9C900D11242091D0023091D6
:1006C000D102BE016F5F7F4F820F931F0E94C81639
:1006D000CE0101960E9445164C2C3D2CFFEFAF1A1F
:1006E000BF0AFFEFEF1AFF0A2FEFC21AD20ACBCFD1
:1006F000F801248135812150310941E050E0B801F1
:10070000CE0101960E948B18BE016F5F7F4FC8011A
:100710000E94C816CE0101960E9445169CCFE61491
:10072000F70409F5552011F0970101C09401442DFB
:10073000532DB801CE0101960E948B182A9CC0014E
:100740002B9C900D11242091D0023091D102BE013A
:100750006F5F7F4F820F931F0E94C816CE010196D4
:100760000E944516BECFB701C8010E94EB17803228
:1007700029F4511003C04C2C3D2CB3CFB701C80154
:100780000E94EB17823209F0ACCF511005C04C2CFF
:100790003D2C55245394A5CF512CA3CF80E090E05D
:1007A00026960FB6F894DEBF0FBECDBFDF91CF9176
:1007B0001F910F91FF90EF90DF90CF90BF90AF907F
:1007C0009F908F907F906F905F904F903F902F9071
:1007D0000895EF92FF921F93CF93DF93CDB7DEB7CB
:1007E00062970FB6F894DEBF0FBECDBF7C01BC018F
:1007F00082ED92E00E9439189095192F111F112750
:10080000111F62ED72E0CE010D960E94DF161123DA
:1008100009F44CC062E872E0CE0101960E94B31662
:10082000B701CE0107960E94DF1662E571E0CE01A6
:1008300007960E94AF17AE014F5F5F4FBC01CE011C
:100840000D960E94D118CE0107960E944516CE0142
:1008500001960E94451629893A892150310940E0C4
:1008600050E0BE01635F7F4FCE0101960E948B185E
:10087000BE016F5F7F4FCE010D960E94C816CE015C
:1008800001960E94451689899A89892B79F0BE01C3
:10089000635F7F4FCE0101960E94DF16CE01019665
:1008A0000E94B102CE0101960E944516CE010D961E
:1008B0000E944516812F62960FB6F894DEBF0FBED8
:1008C000CDBFDF91CF911F91FF90EF900895CF930F
:1008D000DF9300D000D000D0CDB7DEB78091CB023F
:1008E000811130C048E566E780EA92E00E94B30CCF
:1008F00081110FC064E571E0CE0101960E94B3162C
:10090000CE0101960E944702CE0101960E94451633
:1009100019C064EF71E080E090E00E94D11140E0E6
:1009200050E56DE774E480EA92E00E940310609362
:10093000CC027093CD028093CE029093CF0281E0DF
:100940008093CB028091CB0226960FB6F894DEBF3F
:100950000FBECDBFDF91CF91089580E895E20E9450
:100960004D0164E070E080E992E00E94660865E075
:1009700070E083E992E00E94660820E042E060E1D6
:1009800086E992E00C94EC1062E872E082ED92E06D
:100990000E94B31680EA92E00E94E60B86E992E09C
:1009A0000E942E1080E992E00E94C80783E992E03D
:1009B0000C94C80782ED92E00C944516CF92DF921A
:1009C000EF92FF920F931F93CF93DF93CDB7DEB7D4
:1009D00063970FB6F894DEBF0FBECDBF87EC93E0F0
:1009E0000E948D13892B09F403C267EC73E0CE01DA
:1009F00001960E94EA15BE016F5F7F4F82ED92E083
:100A00000E94C816CE0101960E94451666E771E065
:100A1000CE0101960E94B316CE0101960E94E90311
:100A2000182FCE0101960E9445161123E9F08091FE
:100A3000D0029091D1020E94CF19862F61E00E94CE
:100A4000F8128091D0029091D10206960E94CF199F
:100A5000162F8091D0029091D1020E94CF19862F3B
:100A6000612F0E94341353C063E871E0CE010196F8
:100A70000E94B316CE0101960E94E903182FCE0101
:100A800001960E9445161123A1F08091D002909109
:100A9000D1020E94CF19862F60E00E94F812809147
:100AA000D0029091D1020E94CF19862F0E94641328
:100AB00058C06FE871E0CE0101960E94B316CE01D6
:100AC00001960E94E903182FCE0101960E94451657
:100AD000112301F18091D0029091D1020E94CF198F
:100AE000862F61E00E94F8128091D0029091D1028D
:100AF00006960E94CF196B017C018091D0029091E3
:100B0000D1020E94CF19862FB6010E9470120E9456
:100B10000A024AC16BE971E0CE0101960E94B31648
:100B2000CE0101960E94E903182FCE0101960E9482
:100B30004516112319F18091D0029091D1020E94A3
:100B4000CF19862F60E00E94F8128091D002909118
:100B5000D1020E94CF19FB01E65BFD4F80810E940C
:100B600053124AE0BC01CE0101960E94FF16CE014D
:100B700001960E944702CE01019614C166EA71E017
:100B8000CE0101960E94B316CE0101960E94E903A0
:100B9000182FCE0101960E9445161123A9F08091CD
:100BA000D0029091D10206960E94CF19462F8091D3
:100BB000D0029091D1024B8B0E94CF194B8986E9CC
:100BC00092E00E948010A3CF67EB71E0CE01019606
:100BD0000E94B316CE0101960E94E903182FCE01A0
:100BE00001960E944516112349F06091D002709140
:100BF000D10286E992E00E94961589CF64EC71E0FB
:100C0000CE0101960E94B316CE0101960E94E9031F
:100C1000182FCE0101960E944516112329F086E96E
:100C200092E00E94701073CF61ED71E0CE010196E9
:100C30000E94B316CE0101960E94E903182FCE013F
:100C400001960E944516112351F00E9467048823E3
:100C500009F4AAC080EA92E00E94260D1AC068EE4C
:100C600071E0CE0101960E94B316CE0101960E945A
:100C7000E903182FCE0101960E944516112389F031
:100C80000E946704882309F48FC080EA92E00E94E2
:100C9000B10DAB01BC0122E0CE0101960E942B17E1
:100CA00066CF6CEF71E0CE0101960E94B316CE01C3
:100CB00001960E94E903182FCE0101960E94451665
:100CC0001123C1F00E946704882309F46DC040E03D
:100CD00050E56DE774E480EA92E00E9403102091F1
:100CE000CC023091CD024091CE025091CF020E94B1
:100CF000EC19CFCF60E172E0CE0101960E94B316ED
:100D0000CE0101960E94E903182FCE0101960E94A0
:100D100045161123F9F08091D0029091D1020696E8
:100D20000E94CF196B017C018091D0029091D10279
:100D30000E94CF19DC01CB010497A109B109BC01C4
:100D4000660F771F860F971FB60180579D4F0E9431
:100D5000A108DDCE6DE172E0CE0107960E94B316C8
:100D600062ED72E0CE010D960E94DF169E01295FB2
:100D70003F4F4FEFBE01635F7F4FCE0101960E9450
:100D80009401BE016F5F7F4F87EC93E00E94A8152E
:100D9000CE0101960E944516CE010D960E94451681
:100DA000CE0107960E9445160091D0021091D10203
:100DB00001151105E9F0F80132972081318146E0F3
:100DC000429FC001439F900D1124080F191FC801B5
:100DD0002091D0023091D102065011098217930759
:100DE00021F0C8010E944516F2CF02970E94E9192E
:100DF00063960FB6F894DEBF0FBECDBFDF91CF91E3
:100E00001F910F91FF90EF90DF90CF9008951F9268
:100E10000F920FB60F9211242F933F934F935F932E
:100E20006F937F938F939F93AF93BF93EF93FF93B2
:100E30008091D90287FF05C010928500109284002E
:100E40001BC02091D902022E000C330B8091D802D6
:100E500090E02817390784F48091D902082E000CFD
:100E6000990BFC01EE0FFF1F8E0F9F1FFC01E65236
:100E7000FD4F808186FD15C08091D9028F5F8093E0
:100E8000D9022091D902022E000C330B8091D80296
:100E900090E028173907C4F48091D9028C3064F1AE
:100EA00013C08091D902082E000C990BFC01EE0FA3
:100EB000FF1F8E0F9F1FFC01E652FD4F808160E0F7
:100EC0008F730E943413D8CF809184009091850055
:100ED000049680349C4918F480E49CE905C0809114
:100EE00084009091850004969093890080938800F7
:100EF0008FEF8093D9023BC0209184003091850010
:100F00008091D902082E000C990BFC01EE0FFF1FF7
:100F10008E0F9F1FFC01E652FD4F81819281820F4F
:100F2000931F90938900809388008091D902082EA6
:100F3000000C990BFC01EE0FFF1F8E0F9F1FFC0191
:100F4000E652FD4F808186FF12C08091D902082EA3
:100F5000000C990BFC01EE0FFF1F8E0F9F1FFC0171
:100F6000E652FD4F808161E08F730E943413FF9140
:100F7000EF91BF91AF919F918F917F916F915F9111
:100F80004F913F912F910F900FBE0F901F9018958A
:100F9000FC019091D8029C30A0F481E0890F8093ED
:100FA000D8029083892F90E0FC01EE0FFF1F8E0F77
:100FB0009F1FFC01E652FD4F88EB9BE092838183EB
:100FC00008958FEF80830895DF92EF92FF920F9341
:100FD0001F93CF93DF93EC01D62E7A01890188818C
:100FE0008C3008F06AC061E08D2D0E94F812888173
:100FF000E82FF0E09F01220F331FE20FF31FE652AC
:10100000FD4F9D2D9F732081207CD22ED92AD08226
:1010100060E272E0AB014E195F0957FF02C04D5FFD
:101020005F4F5595479555954795498340E659E05B
:101030009A01201B310B37FF02C02D5F3F4F3595C2
:101040002795359527952A836CE00E9401239CE023
:10105000899FB001112440E050E09A01260F371F0C
:10106000F901EE0FFF1F2E0F3F1FF901E652FD4F52
:10107000908196FD16C04F5F5F4F4C30510569F768
:1010800081110FC01092800082E080938100109245
:10109000850010928400B19A80916F0082608093E5
:1010A0006F00E881F0E0CF01880F991FE80FF91F6A
:1010B000E652FD4F8081806480838881DF91CF91EB
:1010C0001F910F91FF90EF90DF90089520E639E097
:1010D00040E252E00C94E407FC0190819C3080F5E2
:1010E000818128E830E0281B310987FD3395220FE4
:1010F000331F220F331F621773077CF0828128E5AC
:1011000032E0281B310987FD3395220F331F220F50
:10111000331F621773070CF49B014FB7F894892FA4
:1011200090E0FC01EE0FFF1F8E0F9F1FFC01E652A7
:10113000FD4F22503109220F331F328321834FBFCD
:101140000895AF92BF92CF92DF92EF92FF920F93EA
:101150001F93CF93DF93EC01603282E078070CF0AD
:101160003FC077FD06C0653B71052CF064EB70E075
:1011700002C060E070E0898128E830E05901A81AD7
:10118000B10887FDB394AA0CBB1CAA0CBB1C0B2C8A
:10119000000CCC08DD08072E000C880B990B2A8167
:1011A00008E512E0021B110927FD1395000F111F1E
:1011B000000F111F012E000C220B330B3F932F93B6
:1011C0001F930F9314EBE12EF12C00E010E020E0D0
:1011D00030E0A9010E9404160F900F900F900F901D
:1011E000CE01DF91CF911F910F91FF90EF90DF9093
:1011F000CF90BF90AF900C946C0810926B0381E07D
:10120000809369031092680361E082E10E943413C5
:1012100061E083E10E943413E9EBF0E080818E7F8E
:10122000808380818D7F808388E48093B80085E40B
:101230008093BC000895413208F03FC090916B0349
:101240009111FCCF91E090936B03209369032FEFF2
:101250002093FE0210924303240F209342039093A5
:101260006A0390916A03880F892B80936A038091A7
:101270006803813041F41092680380916A0380937F
:10128000BB0085EC01C085EE8093BC0080916B03B0
:101290008130E1F380914303841710F440914303BC
:1012A00024E433E0FB01D9018A2F821B841718F450
:1012B0008D918193F9CF842F089580E008950F9345
:1012C000413208F046C090916B039111FCCF32E09F
:1012D00030936B03009369033FEF3093FE0210924B
:1012E000430340934203FB0164E473E0DB013A2FC4
:1012F000361B341718F431913D93F9CF10926A03DD
:1013000030916A03880F832B80936A03809168036E
:10131000813041F41092680380916A038093BB008E
:1013200085EC01C085EE8093BC00222321F08091E2
:101330006B038230D1F38091FE028F3F79F0809170
:10134000FE02803241F08091FE02803331F094E061
:1013500005C091E003C092E001C093E0892F0F9196
:101360000895613298F420916B03243089F46093DE
:101370002003FC0122E233E0D9018A2F821B861769
:1013800018F481918D93F9CF80E0089581E008955C
:1013900082E0089585ED8093BC008091BC0084FDBF
:1013A000FCCF10926B03089585EC8093BC001092E3
:1013B0006B0308951F920F920FB60F9211242F9373
:1013C0003F934F935F936F937F938F939F93AF93CD
:1013D000BF93EF93FF938091B900887F803609F423
:1013E0009CC068F5883209F45BC090F4803109F440
:1013F00054C038F4882309F4F5C0883009F44DC08E
:10140000F5C0883109F44CC0803209F45DC0EEC0EB
:10141000803409F468C048F4803309F455C0883337
:1014200009F0E4C08093FE02A8C0803509F44FC0E3
:10143000883509F45DC0883409F0D8C0D5C0883932
:1014400009F4C6C0A8F4883709F467C038F48836B0
:1014500009F463C0803709F460C0C8C0883809F453
:10146000B7C0803909F45FC0803809F0BFC05BC0E5
:10147000803B09F485C038F4803A09F466C0883AA4
:1014800009F47EC0B3C0803C09F4A6C0883C09F4CE
:10149000A3C0883B09F489C0A9C080916A0310C029
:1014A0009091430380914203981770F5E0914303B4
:1014B00081E08E0F80934303F0E0EC5BFC4F808172
:1014C0008093BB0085EC85C08093FE028DC0E091C7
:1014D000430381E08E0F809343038091BB00F0E0D3
:1014E000EC5BFC4F808390914303809142036DC07D
:1014F000E091430381E08E0F809343038091BB0012
:10150000F0E0EC5BFC4F80838091690381116CC03B
:1015100081E08093680384EA60C083E080936B037A
:101520001092FF02CFCF8091FF02803208F050C0AE
:10153000E091FF0281E08E0F8093FF028091BB005B
:10154000F0E0E050FD4F8083BDCF8091FF028032FC
:1015500030F4E091FF02F0E0E050FD4F10820E9475
:10156000CA096091FF0270E0E0916403F0916503A5
:1015700080E093E009951092FF020E94D40936C0E2
:1015800084E080936B031092210310922003E0917A
:101590006603F0916703099580912003811105C0CE
:1015A00081E08093200310922203E091210381E0E7
:1015B0008E0F80932103F0E0EE5DFC4F80818093DD
:1015C000BB009091210380912003981708F47ACFF3
:1015D00085E88093BC000AC085EC8093BC00109223
:1015E0006B0304C01092FE020E94CA09FF91EF91A2
:1015F000BF91AF919F918F917F916F915F914F912B
:101600003F912F910F900FBE0F901F90189580E083
:1016100090E00895089580919C0390E020919D03AF
:10162000821B9109089590919D0380919C039817C6
:1016300050F4E92FF0E0E256FC4F208130E09F5F4C
:1016400090939D0302C02FEF3FEFC9010895E091F1
:101650009D0380919C03E81730F4F0E0E256FC4FC4
:10166000808190E008958FEF9FEF08950895CF92C5
:10167000DF92EF92FF920F931F93CF93DF937C0142
:10168000262F972F8A0180917803882391F0C62F07
:10169000D72F6E01C40ED51ECC15DD0571F06991F2
:1016A000D701ED91FC910190F081E02DC7010995E2
:1016B000F3CF642F822F0E94B109C801DF91CF912F
:1016C0001F910F91FF90EF90DF90CF900895CF93EF
:1016D000DF931F92CDB7DEB7698320917803222371
:1016E000D1F020917903203240F021E030E0FC017C
:1016F0003383228380E090E015C080917A03E82F45
:10170000F0E0E558FC4F998190838F5F80937A03D6
:101710008093790305C061E0CE0101960E94B10972
:1017200081E090E00F90DF91CF910895FC0113824A
:10173000128288EE93E0A0E0B0E084839583A683D4
:10174000B78384E592E091838083089510929D038E
:1017500010929C0310927A03109279030C94FD0866
:10176000862F413208F040E26EE973E00E941B09C7
:1017700010929D0380939C03089521E00C94B00B7C
:1017800081E08093780360939B0310927A03109218
:10179000790308950C94C00B0F93062F21E040911C
:1017A00079036BE773E080919B030E945F091092BD
:1017B0007A0310927903109278030F91089561E0F3
:1017C0000C94CC0B8CE693E00C94960B2FEFFC0161
:1017D00021870895CF93DF93FC0121852F3FB9F432
:1017E000C42FD62F60818CE693E00E94C00B6D2F32
:1017F0008CE693E00E94670B6C2F8CE693E00E94CE
:10180000670B8CE693E0DF91CF910C94DF0BDF91B7
:10181000CF9108951F93CF93DF93EC0189858F3F7C
:10182000D1F4162F68818CE693E00E94C00B612FE3
:101830008CE693E00E94670B8CE693E00E94DF0B3E
:1018400041E068818CE693E00E94BD0B8CE693E05A
:101850000E94130B282F822FDF91CF911F910895A3
:101860001F93CF93DF93FC0141854F3F21F5162F46
:10187000EC0160818CE693E00E94C00B612F8CE646
:1018800093E00E94670B8CE693E00E94DF0B42E03E
:1018900068818CE693E00E94BD0B8CE693E00E9489
:1018A000130BC82F8CE693E00E94130B20E030E06E
:1018B0003C2F282B392BC901DF91CF911F9108951F
:1018C0000E94300C9827892798270895CF93DF939B
:1018D000EC0168E80E94600C9B878A876AE8CE0169
:1018E0000E94600C9D878C876CE8CE010E94600C82
:1018F0009F878E876EE8CE010E94600C998B888B43
:1019000060E9CE010E94600C9B8B8A8B62E9CE015C
:101910000E94600C9D8B8C8B64E9CE010E94600C50
:101920009F8B8E8B66E9CE010E94600C998F888F09
:1019300068E9CE010E94600C9B8F8A8F6AE9CE0114
:101940000E94600C9D8F8C8F6CE9CE010E94600C10
:101950009F8F8E8F6EE9CE010E94600C99A388A3A1
:10196000DF91CF9108951F93CF93DF93EC016883AC
:1019700089858F3F11F080E014C0142F8CE693E02E
:101980000E94A60B60EDCE010E940A0C8113F3CFDA
:10199000CE010E94660C4FE364EFCE010E94EA0B79
:1019A00081E0DF91CF911F910895CF92DF92EF9266
:1019B000FF92CF93DF93FC0121852F3FF1F5F62EA7
:1019C000EC0160818CE693E00E94C00B6F2D8CE6E9
:1019D00093E00E94670B8CE693E00E94DF0B43E0EC
:1019E00068818CE693E00E94BD0B8CE693E00E9438
:1019F000130B6C01990FEE08FF08FE2CED2CDC2C6C
:101A0000CC248CE693E00E94130BAC01990F660B7B
:101A1000770BC42AD52AE62AF72A8CE693E00E949F
:101A2000130BFE2CED2CDC2CCC24092E000CAA0B65
:101A3000BB0BC82AD92AEA2AFB2AC701B601DF91C3
:101A4000CF91FF90EF90DF90CF9008958F929F926B
:101A5000AF92BF92CF92DF92EF92FF920F931F93BC
:101A6000CF93DF93EC016AEF0E94D50C0A851B85AA
:101A700020E030E0C72ED82EE92EFF24E7FCFA94B0
:101A8000C01AD10AE20AF30AAB01BC01E7E075957E
:101A9000679557954795EA95D1F7000F111F221FBB
:101AA000331FDB01CA01801B910BA20BB30B9C01FE
:101AB000AD01AC85BD850E9459234B015C01ABE0B3
:101AC000B594A79497948794AA95D1F7A701960106
:101AD000C701B6010E94F1229B01AC01BCE0559503
:101AE000479537952795BA95D1F7AE85BF850E9462
:101AF0005923AB01BC011EE0759567955795479535
:101B00001A95D1F79A01AB01280D391D4A1D5B1DAD
:101B10002D833E834F835887A5E0B0E00E944E237B
:101B2000DC01CB0180589F4FAF4FBF4F692F7A2FF9
:101B30008B2F992787FD9A950E94D31A20E030E0D9
:101B400048EC52E40E94591ADF91CF911F910F91F6
:101B5000FF90EF90DF90CF90BF90AF909F908F90CD
:101B600008952F923F924F925F926F927F928F9241
:101B70009F92AF92BF92CF92DF92EF92FF920F931C
:101B80001F93CF93DF93CDB7DEB7A4970FB6F8942A
:101B9000DEBF0FBECDBF9CA38BA30E94260D67EFB7
:101BA0008BA19CA10E94D50C6C8F7D8F8E8F9F8FF7
:101BB000EBA1FCA185819681A781B0856C017D0197
:101BC000FF0CCC08DC2C76019C01AD016C2D7C2D2A
:101BD0008C2D9C2D345F41405109610971098109A7
:101BE000910929833A834B835C836D837E838F8342
:101BF000988759016A017B018C010E9461232C8B1B
:101C00003D8B4E8B5F8B688F798F8A8F9B8FABA1BB
:101C1000BCA15A96BC91B8A3EBA1FCA1F38DF987A6
:101C2000ABA1BCA15896BC91B9A3EBA1FCA1F18DCD
:101C3000FA87ABA1BCA15696BC91BAA3EBA1FCA1BB
:101C4000F789FB87ABA1BCA15396BC9053975296E2
:101C5000AC901B2D110F110BC12ED12EE12EF12EA8
:101C6000012F29813A814B815C816D817E818F8139
:101C700098850E9461230CE00E94912419012A0199
:101C80003B014C01EBA1FCA1B588A4881B2D110FD1
:101C9000110BC12ED12EE12EF12E012F2C893D8961
:101CA0004E895F89688D798D8A8D9B8D0E94612315
:101CB00008E00E94AA2451016201730184010E947C
:101CC000C82470588F4F9F4FABA1BCA150962D9048
:101CD0003C9051975101C12CD12CE12CF12C00E00A
:101CE00010E00E94612301E20E94AA242C873D8714
:101CF0004E875F87688B798B8A8B9B8BA0E00E94D5
:101D0000DA2409F464C1A8A01985110F110BB98454
:101D1000C12ED12EE12EF12E012F2C893D894E8925
:101D20005F89688D798D8A8D9B8D0E946123190151
:101D30002A013B014C01A9A01A85110F110BBA848D
:101D4000C12ED12EE12EF12E012F29813A814B8116
:101D50005C816D817E818F8198850E94612301E184
:101D60000E94912459016A017B018C019101A20119
:101D7000B301C4010E94C82419012A013B014C018E
:101D80004C8D5D8D6E8D7F8D84E075956795579533
:101D900047958A95D1F780E090E0A0E1B0E0841B00
:101DA000950BA60BB70B6C017D01FF0CCC08DC2C4E
:101DB00076019C01AD016C2D7C2D8C2D9C2D0FE1AD
:101DC0000E949124F901B42FA52F6D837E838B830C
:101DD0009C832AA19B85990F990B3B85492F592FED
:101DE000692F792F892F03E20E94912459016A01FA
:101DF0007B018C019101A201B301C4010E94C8249E
:101E000059016A017B018C019F014B2F5A2F6D8173
:101E10007E818B819C810E94D1244901542E652EA4
:101E2000B62FA72FF82FE92F03E00E949124540129
:101E3000C52CD62CEB2EFA2E0F2F1E2F0E94D1244C
:101E400059016A017B01782E192F03E00E94912429
:101E5000072D0E94D12403E00E9491245401C52C37
:101E6000D62CEB2EFA2E0F2F1E2F0E94D12402E02B
:101E70000E9491240F2F0E94D12401E00E949124FE
:101E80000F2F0E94D124AC84BD84CE84DF84E888E7
:101E9000F9880A891B890E94BC2329833A834B83D2
:101EA0005C836D837E838F8398870DE00E94AA24D4
:101EB000922E832E742E652E562E472E382E292EC6
:101EC000EBA1FCA131A120A1932F990F990BA92C73
:101ED000B82CC72CD62CE52CF42C032D122D492F11
:101EE000592F692F792F892F0E9461230E94612326
:101EF00009E10E94AA2459016A017B018C01298110
:101F00003A814B815C816D817E818F8198850E94B1
:101F1000C82419012A013B014C01ABA1BCA15F9669
:101F20003C915F975E962C91932F990F990BA98006
:101F3000BA80CB80DC80ED80FE800F811885492F30
:101F4000592F692F792F892F0E94612303E10E9465
:101F5000AA2459016A017B018C019101A201B301FC
:101F6000C4010E94C82408E00E94AA24522E632EB5
:101F7000742E852E962EF72FE82F492EABA1BCA1EB
:101F80005D963C915D975C962C91932F990F990BE0
:101F9000492F592F692F792F892F04E00E9491240E
:101FA00059016A017B018C01252D362D472D582DB5
:101FB000692D7F2F8E2F942D0E94C8240E94CB1A4A
:101FC00020E030E040E85BE30E94AD1B03C060E02E
:101FD00070E0CB01A4960FB6F894DEBF0FBECDBF64
:101FE000DF91CF911F910F91FF90EF90DF90CF90F5
:101FF000BF90AF909F908F907F906F905F904F9029
:102000003F902F900895CF92DF92EF92FF926A0156
:102010007B010E94B10D20E030E048EC52E40E94C8
:10202000591AA70196010E94591A21E03EED42E497
:102030005EE30E941A1C9B01AC0160E070E080E846
:102040009FE30E94EC1920E03AE24DE257E40E943F
:10205000AD1BFF90EF90DF90CF900895FC011382AD
:10206000128226E632E0318320830895EF92FF92B8
:102070000F931F93CF93DF937C01C62F6EE370E025
:102080008CE693E00E94CA0B8701D0E0C8018E194C
:102090009F098C179D0744F4F80161918F018CE62C
:1020A00093E00E94670BF2CF8CE693E0DF91CF9133
:1020B0001F910F91FF90EF900C94DF0BCF93DF9364
:1020C00000D0CDB7DEB790E899838A8362E0CE0175
:1020D00001960E9436100F900F90DF91CF910895D6
:1020E00081E00E945E1080ED97E00C940D12FC01DF
:1020F0009581892F84608583892F8C600C945E1074
:10210000CF93DF9300D0CDB7DEB7411102C0606836
:1021100001C0606C80E889836A8362E0CE01019629
:102120000E9436100F900F90DF91CF910895CF93BA
:10213000DF9300D0CDB7DEB780E489836A8362E0A5
:10214000CE0101960E94361081E090E00F900F9032
:10215000DF91CF9108951F93CF93DF931F92CDB757
:10216000DEB7162F62E670E08CE693E049830E94AA
:10217000CA0B612F8CE693E00E94670B4981642FA4
:102180008CE693E00E94670B8CE693E00F90DF9162
:10219000CF911F910C94DF0BEF92FF921F93CF937F
:1021A000DF931F92CDB7DEB77C01142F462F64E07A
:1021B00029830E94AB10412F63E0C7010E94AB103E
:1021C0002981422F62E0C7010F90DF91CF911F91CB
:1021D000FF90EF900C94AB100F931F93CF93DF936E
:1021E00000D0CDB7DEB78C018CE693E02A8349831B
:1021F0000E94A60B49812A81423020F0F801848197
:1022000088608483F80140871186222329F04130B9
:1022100019F484818460848380E593EC0E940D121C
:10222000F801848180620E945E1084E991E10E943D
:102230000D12F801848180620E945E1086E990E0B0
:102240000E940D12F801848180620E945E10F801E4
:10225000848180620E945E1084E0F8018583C80159
:102260000E947710C8010E94701082E0F8018683F6
:1022700086E00E945E1040E060E0C8010E94AB1062
:102280004FEF68E0C8010E94AB1040E261E0C80176
:102290000E94AB102FEF4FEF6FEFC8010F900F9020
:1022A000DF91CF911F910F910C94CC101F920F9240
:1022B0000FB60F9211242F933F938F939F93AF9359
:1022C000BF938091BF039091C003A091C103B091CF
:1022D000C2033091BE0323E0230F2D3720F4019673
:1022E000A11DB11D05C026E8230F0296A11DB11D39
:1022F0002093BE038093BF039093C003A093C103B8
:10230000B093C2038091C3039091C403A091C5030D
:10231000B091C6030196A11DB11D8093C303909394
:10232000C403A093C503B093C603BF91AF919F911F
:102330008F913F912F910F900FBE0F901F90189586
:102340002FB7F8946091BF037091C0038091C103CF
:102350009091C2032FBF08953FB7F8948091C303B3
:102360009091C403A091C503B091C60326B5A89B64
:1023700005C02F3F19F00196A11DB11D3FBFBA2F17
:10238000A92F982F8827820F911DA11DB11DBC0177
:10239000CD0142E0660F771F881F991F4A95D1F73C
:1023A00008958F929F92AF92BF92CF92DF92EF9259
:1023B000FF926B017C010E94AC114B015C01C114C6
:1023C000D104E104F10401F10E94EB190E94AC1167
:1023D000DC01CB0188199909AA09BB09883E934001
:1023E000A105B10560F321E0C21AD108E108F108A6
:1023F00088EE880E83E0981EA11CB11CC114D10484
:10240000E104F10419F7DBCFFF90EF90DF90CF905C
:10241000BF90AF909F908F9008958230910538F0D3
:10242000880F991F880F991F05970197F1F7089555
:10243000789484B5826084BD84B5816084BD85B59F
:10244000826085BD85B5816085BDEEE6F0E0808166
:1024500081608083E1E8F0E0108280818260808387
:10246000808181608083E0E8F0E08081816080830A
:10247000E1EBF0E0808184608083E0EBF0E080813C
:1024800081608083EAE7F0E08081846080838081DE
:102490008260808380818160808380818068808386
:1024A0001092C10008958E3008F08E5087702091F0
:1024B000060190E4299F90011124822B80937C00D7
:1024C00080917A00806480937A0080917A0086FD02
:1024D000FCCF809178002091790090E0922B0895B4
:1024E0001F93CF93DF93182FEB0161E00E94F81246
:1024F000209711F460E004C0CF3FD10539F461E0CA
:10250000812FDF91CF911F910C943413E12FF0E0D4
:10251000EC51FE4FE491E330F9F048F4E130B9F0CA
:10252000E230A1F584B5806284BDC8BD34C0E73017
:10253000E9F0E83019F1E43049F5809180008062DB
:1025400080938000D0938B00C0938A0024C084B510
:10255000806884BDC7BD1FC0809180008068809363
:102560008000D0938900C093880015C08091B0008E
:1025700080688093B000C093B3000DC08091B0001C
:1025800080628093B000C093B40005C0C038D1050C
:102590000CF0B5CFAFCFDF91CF911F91089583306D
:1025A00081F028F4813099F08230A1F008958730CD
:1025B000A9F08830B9F08430D1F4809180008F7D0B
:1025C00003C0809180008F7780938000089584B548
:1025D0008F7702C084B58F7D84BD08958091B0004F
:1025E0008F7703C08091B0008F7D8093B0000895F5
:1025F000CF93DF9390E0FC01E850FE4F2491FC0163
:10260000E45FFD4F8491882361F190E0880F991F6A
:10261000FC01EC5CFD4FC591D491FC01E65DFD4FE2
:10262000A591B491611109C09FB7F8948881209554
:1026300082238883EC912E230BC0623061F49FB714
:10264000F8943881822F809583238883EC912E2BF8
:102650002C939FBF06C08FB7F894E8812E2B288358
:102660008FBFDF91CF9108951F93CF93DF93282FD2
:1026700030E0F901EC51FE4F8491F901E850FE4F32
:10268000D491F901E45FFD4FC491CC23C9F0162F1A
:1026900081110E94CF12EC2FF0E0EE0FFF1FE65DDC
:1026A000FD4FA591B4918FB7F894111105C09C917D
:1026B000ED2FE095E92302C0EC91ED2BEC938FBF59
:1026C000DF91CF911F910895CF93DF93282F30E0B2
:1026D000F901EC51FE4F8491F901E850FE4FD4917D
:1026E000F901E45FFD4FC491CC2391F081110E9468
:1026F000CF12EC2FF0E0EE0FFF1FE05EFD4FA59133
:10270000B491EC91ED2381E090E021F480E002C0EF
:1027100080E090E0DF91CF910895FC01918D228DB2
:10272000892F90E0805C9F4F821B91098F739927BE
:102730000895FC01918D828D981731F0828DE80FFC
:10274000F11D858D90E008958FEF9FEF0895FC01B6
:10275000918D828D981761F0828DDF01A80FB11DD8
:102760005D968C91928D9F5F9F73928F90E00895FC
:102770008FEF9FEF0895FC01538D448D252F30E09E
:10278000842F90E0821B930B541710F0CF9608957E
:10279000019708958FE195E1892B49F080E090E061
:1027A000892B29F00E941F1581110C9400000895B7
:1027B000FC01848DDF01A80FB11DA35ABF4F2C91DE
:1027C000848D90E001968F739927848FA689B789AD
:1027D0002C93A089B1898C9180648C93938D848D86
:1027E000981306C00288F389E02D80818F7D808355
:1027F0000895CF93DF93EC01888D8823C9F0EA898F
:10280000FB89808185FD05C0A889B9898C9186FDE9
:102810000FC00FB607FCF5CF808185FFF2CFA889E6
:10282000B9898C9185FFEDCFCE010E94D813E7CFF7
:10283000DF91CF910895EF92FF920F931F93CF9363
:10284000DF93EC0181E0888F9B8D8C8D981305C000
:10285000E889F989808185FD24C0F62E0B8D10E072
:102860000F5F1F4F0F731127E02E8C8DE8120CC0E5
:102870000FB607FCFACFE889F989808185FFF5CF8B
:10288000CE010E94D813F1CF8B8DFE01E80FF11D10
:10289000E35AFF4FF0820B8FEA89FB8980818062C7
:1028A00007C0EE89FF896083E889F98980818064A7
:1028B000808381E090E0DF91CF911F910F91FF9095
:1028C000EF900895CF92DF92EF92FF921F93CF93F4
:1028D000DF93EC016A017B01122FE889F98982E01C
:1028E00080834115514E61057105B1F060E079E0DA
:1028F0008DE390E0A70196010E940D23DA01C90142
:102900000197A109B109B695A79597958795AC014F
:10291000411580E15807A8F0E889F989108260E83C
:1029200074E88EE190E0A70196010E940D23BA01A0
:10293000A90141505109610971097695679557952B
:102940004795EC85FD855083EE85FF854083188E85
:10295000EC89FD891083EA89FB898081806180830D
:10296000EA89FB89808188608083EA89FB8980818C
:1029700080688083EA89FB8980818F7D8083DF91F5
:10298000CF911F91FF90EF90DF90CF9008951F920D
:102990000F920FB60F9211242F938F939F93EF9363
:1029A000FF93E091D703F091D8038081E091DD039C
:1029B000F091DE0382FD12C090818091E0038F5F71
:1029C0008F732091E103821751F0E091E003F0E072
:1029D000E953FC4F958F8093E00301C08081FF9104
:1029E000EF919F918F912F910F900FBE0F901F909D
:1029F00018951F920F920FB60F9211242F933F93A9
:102A00004F935F936F937F938F939F93AF93BF93F6
:102A1000EF93FF9387EC93E00E94D813FF91EF911F
:102A2000BF91AF919F918F917F916F915F914F91E6
:102A30003F912F910F900FBE0F901F90189587EC2C
:102A400093E00E948D1321E0892B09F420E0822F6E
:102A50000895E7ECF3E01382128288EE93E0A0E0A1
:102A6000B0E084839583A683B78382E792E0918365
:102A7000808385EC90E09587848784EC90E097874D
:102A8000868780EC90E0918B808B81EC90E0938B3B
:102A9000828B82EC90E0958B848B86EC90E0978B18
:102AA000868B118E128E138E148E0895CF92DF9224
:102AB000EF92FF920F931F93CF93DF936C017A01F4
:102AC0008B01C0E0D0E0CE15DF0589F0D8016D9113
:102AD0008D01D601ED91FC910190F081E02DC601B0
:102AE0000995892B11F47E0102C02196ECCFC70114
:102AF000DF91CF911F910F91FF90EF90DF90CF90DA
:102B000008956115710579F0FB0101900020E9F746
:102B10003197AF01461B570BDC01ED91FC91028010
:102B2000F381E02D099480E090E00895DC01ED91BF
:102B3000FC91DB0114964D915C9115976D917C9100
:102B40000280F381E02D099460E872E00C94811515
:102B50000F931F93CF93DF93EC010E9496158C0186
:102B6000CE010E94A415800F911FDF91CF911F917C
:102B70000F9108950F931F93CF93DF93EC010E9461
:102B8000A011688779878A879B87E881F981028409
:102B9000F385E02DCE01099597FF17C00E94A01183
:102BA000088519852A853B85DC01CB01801B910BAB
:102BB000A20BB30B0C811D812E813F8180179107E1
:102BC000A207B30710F38FEF9FEFDF91CF911F9113
:102BD0000F9108950F931F93CF93DF93EC018B0117
:102BE00062E872E00E94B316C8010E94BA1597FD10
:102BF00005C0682FCE010E948917F6CFCE01DF9164
:102C0000CF911F910F9108954F925F926F927F9293
:102C1000AF92BF92CF92DF92EF92FF920F931F93EA
:102C2000CF93DF93CDB7DEB729013A019B01AC0109
:102C3000241935094609570989899A89AB89BC89BC
:102C4000BC01CD016A197B098C099D090E94F12202
:102C5000A801970124193509460957090E942F2315
:102C6000CA01B9016A0D7B1D8C1D9D1DDF91CF919D
:102C70001F910F91FF90EF90DF90CF90BF90AF909A
:102C80007F906F905F904F900895FC0180819181BB
:102C90000C94541ECF93DF93EC01888199810097A7
:102CA00011F00E94541E198218821D821C821B8200
:102CB0001A82DF91CF9108950F931F93CF93DF93E3
:102CC000EC018B016F5F7F4F888199810E94EC1E20
:102CD000009731F0998388831B830A8381E001C0C8
:102CE00080E0DF91CF911F910F910895CF93DF93F3
:102CF000EC0188819981892B29F08A819B81861733
:102D0000970760F4CE010E945C16882341F08C8105
:102D10009D81892B19F4E881F981108281E0DF918E
:102D2000CF910895EF92FF920F931F93CF93DF936C
:102D3000EC017B018A01BA010E947616811104C060
:102D4000CE010E944A1607C01D830C83B7018881FB
:102D500099810E940620CE01DF91CF911F910F91A2
:102D6000FF90EF900895FC0111821082138212826D
:102D7000158214826115710551F0FB01019000204C
:102D8000E9F73197AF01461B570B0C949216089543
:102D9000CF93DF93EC01FB018617970761F0608109
:102DA00071816115710529F0448155810E94921647
:102DB00002C00E944A16CE01DF91CF910895FC0116
:102DC0001182108213821282158214820C94C8160A
:102DD000CF93DF93EC016115710559F0FB01019070
:102DE0000020E9F73197AF01461B570B0E9492165E
:102DF00002C00E944A16CE01DF91CF9108950F9331
:102E00001F93CF93DF93CDB7DEB762970FB6F894D9
:102E1000DEBF0FBECDBF8C01CB01F8011182108245
:102E2000138212821582148250E0BE016F5F7F4FC1
:102E30000E943620BE016F5F7F4FC8010E94E816D6
:102E400062960FB6F894DEBF0FBECDBFDF91CF9173
:102E50001F910F910895EF92FF920F931F93CF93BD
:102E6000DF93CDB7DEB7A1970FB6F894DEBF0FBEE4
:102E7000CDBF7C01CB01BA01F70111821082138210
:102E800012821582148242E0420F8E010F5F1F4FA3
:102E90000E949F1DBC01C7010E94E816A1960FB6B3
:102EA000F894DEBF0FBECDBFDF91CF911F910F9180
:102EB000FF90EF900895EF92FF920F931F93CF939F
:102EC000DF93FC01248135816115710511F480E0E7
:102ED00019C041155105A9F07B01EC018A01020FCF
:102EE000131FB8010E947616882389F3288139813F
:102EF0008C819D81B701820F931F0E9406201D8344
:102F00000C8381E0DF91CF911F910F91FF90EF90A3
:102F10000895CF93DF9300D0CDB7DEB769831A82CF
:102F200041E050E0BE016F5F7F4F0E945B170F9042
:102F30000F90DF91CF910895CF93DF93EC01FB01C8
:102F400044815581608171810E945B17811103C0AA
:102F5000CE010E944A16CE01DF91CF910895CF9302
:102F6000DF93EC016115710561F0FB010190002018
:102F7000E9F73197AF01461B570B0E945B17811190
:102F800003C0CE010E944A16CE01DF91CF91089571
:102F9000FC01248135816217730720F480819181BF
:102FA000009729F41092640484E694E00895860F53
:102FB000971F0895FC01248135816217730748F437
:102FC00080819181009729F0FC01E60FF71F808135
:102FD000089580E008950C94DA170F931F93CF9310
:102FE000DF934115510519F16115710501F1DC01FE
:102FF0001496ED91FC9115972E173F0718F0FB01E1
:10300000108215C0E21BF30BEA012197EC17FD07B4
:1030100008F4EF018B01FC0160817181620F731F65
:10302000AE01C8010E940D20C00FD11F1882DF9190
:10303000CF911F910F910895CF93DF93FC012481CD
:1030400035814217530780F4FB01DC01CD91DC91FF
:1030500060817181CE01840F951F0E941C20009712
:1030600019F08C1B9D0B02C08FEF9FEFDF91CF916A
:10307000089540E050E00C941C18AF92BF92CF929C
:10308000DF92EF92FF920F931F93CF93DF937B0119
:103090008A01FB01448155814115510561F1FC0113
:1030A000248135812115310531F12417350718F1B7
:1030B0000217130718F0890101501109FC01A080C3
:1030C000B180C501DFEFCFEF6501C00ED11EC8167C
:1030D000D906A0F0F701608171810E941C20009741
:1030E00069F09C012A193B090217130710F0D22F2F
:1030F000C32F0196ECCF8FEF9FEF02C08D2F9C2F37
:10310000DF91CF911F910F91FF90EF90DF90CF90C3
:10311000BF90AF900895BF92CF92DF92EF92FF924F
:103120000F931F93CF93DF937C016B018A01E90119
:103130002417350720F4812F8901C42FD82F62E886
:1031400072E0C7010E94B316D60114968D919C912E
:10315000159708171907D0F48C179D0708F4EC0190
:10316000D601ED91FC911197EC0FFD1FB0801082FC
:103170004D915C91BA01600F711FC7010E94E81662
:10318000D601ED91FC91EC0FFD1FB082C701DF91DC
:10319000CF911F910F91FF90EF90DF90CF90BF9054
:1031A00008952F923F924F925F926F927F928F92EB
:1031B0009F92AF92BF92CF92DF92EF92FF920F93C6
:1031C0001F93CF93DF93FC01448055804114510439
:1031D00009F4D2C0FB01648075806114710409F4A4
:1031E000CBC07A016B018C01FA01A480B580A618CE
:1031F000B708FC01C081D181A114B104C1F4F6016A
:1032000060817181CE010E941C20EC01892B09F4A0
:10321000B3C0F7016081718144815581CE010E9464
:10322000E01FF70184819581C80FD91FE8CFB7FE51
:1032300002C04E0105C0FB0120803180420143C025
:10324000F60160817181C4010E941C202C01892B30
:1032500021F1320168187908A301B401CE010E945E
:10326000E01FC60DD71DF701608171814481558132
:10327000CE010E94E01FF70184819581C80FD91FFC
:10328000F60184809580840C951CF80184819581D9
:103290008A0D9B1D95838483D3CFB401CE01DF912A
:1032A000CF911F910F91FF90EF90DF90CF90BF9043
:1032B000AF909F908F907F906F905F904F903F90D6
:1032C0002F900C940620B101CE010E941C20009783
:1032D00031F0EC01C60DD71D8A0C9B1CF4CF841471
:1032E000950409F449C0F8018281938188159905F4
:1032F00030F4B401C8010E945C168823E9F1F8019A
:10330000448155814150510957FD36C0B601C8016D
:103310000E943D18EC0197FD2FC0F801808191813A
:10332000F601248135812C0F3D1F820F931FF80178
:1033300044815581421B530BBC018A0D9B1D0E9489
:10334000E91FF801848195818A0D9B1D95838483F3
:1033500020813181F901E80FF91F1082F801808185
:103360009181F70160817181448155818C0F9D1F8E
:103370000E94E01FAE01C6CFDF91CF911F910F9148
:10338000FF90EF90DF90CF90BF90AF909F908F9085
:103390007F906F905F904F903F902F900895FC0129
:1033A00080819181009711F00C94B61F60E070E06D
:1033B000CB0108950E9418120E94AD04CAECD3E11B
:1033C0000E94DE042097E1F30E94CA13F9CF0C9407
:1033D000BF1D0C94541E08955058BB27AA270E9465
:1033E000041A0C94731B0E94651B38F00E946C1B1E
:1033F00020F039F49F3F19F426F40C94521B0EF47C
:10340000E095E7FB0C944C1BE92F0E94841B58F3BA
:10341000BA17620773078407950720F079F4A6F5B9
:103420000C94A61B0EF4E0950B2EBA2FA02D0B01C9
:10343000B90190010C01CA01A0011124FF27591BF9
:1034400099F0593F50F4503E68F11A16F040A22FFF
:10345000232F342F4427585FF3CF46953795279570
:10346000A795F0405395C9F77EF41F16BA0B620B6F
:10347000730B840BBAF09150A1F0FF0FBB1F661FB6
:10348000771F881FC2F70EC0BA0F621F731F841FF9
:1034900048F4879577956795B795F7959E3F08F01F
:1034A000B0CF9395880F08F09927EE0F97958795E1
:1034B00008950E946D1A0C94731B0E946C1B58F0A7
:1034C0000E94651B40F029F45F3F29F00C944C1BCF
:1034D00051110C94A71B0C94521B0E94841B68F37F
:1034E0009923B1F3552391F3951B550BBB27AA27BD
:1034F00062177307840738F09F5F5F4F220F331FF7
:10350000441FAA1FA9F335D00E2E3AF0E0E832D0BE
:1035100091505040E695001CCAF72BD0FE2F29D0C1
:10352000660F771F881FBB1F261737074807AB0793
:10353000B0E809F0BB0B802DBF01FF2793585F4F08
:103540003AF09E3F510578F00C944C1B0C94A71B4D
:103550005F3FE4F3983ED4F3869577956795B795EA
:10356000F7959F5FC9F7880F911D9695879597F9F5
:103570000895E1E0660F771F881FBB1F621773076E
:103580008407BA0720F0621B730B840BBA0BEE1F83
:1035900088F7E095089597FB16F40E94551B0C944C
:1035A0000F1BE89409C097FB3EF4909580957095A9
:1035B00061957F4F8F4F9F4F9923A9F0F92F96E97F
:1035C000BB279395F695879577956795B795F111F4
:1035D000F8CFFAF4BB0F11F460FF1BC06F5F7F4F91
:1035E0008F4F9F4F16C0882311F096E911C07723A3
:1035F00021F09EE8872F762F05C0662371F096E8AC
:10360000862F70E060E02AF09A95660F771F881F7A
:10361000DAF7880F9695879597F90895E894F92F2A
:1036200096EBFF2381F0121613061406440B9395B4
:10363000F69587957795679557954040FF23B9F79D
:103640001BC099270895882351F49850D2F7872BEF
:10365000762F652F542F432F322F20E0B1F312160F
:1036600013061406440B88233AF09A95440F551F0D
:10367000661F771F881FCAF755234AF4440F551F4A
:1036800011F460FF04C06F5F7F4F8F4F9F4F880F13
:103690009695879597F9089597F99F6780E870E068
:1036A00060E008959FEF80EC089590958095709567
:1036B000609550954095309521953F4F4F4F5F4F06
:1036C0006F4F7F4F8F4F9F4F089500240A94161617
:1036D000170618060906089500240A941216130600
:1036E000140605060895092E0394000C11F488238E
:1036F00052F0BB0F40F4BF2B11F460FF04C06F5FAA
:103700007F4F8F4F9F4F089557FD9058440F551F7F
:1037100059F05F3F71F04795880F97FB991F61F053
:103720009F3F79F087950895121613061406551FCA
:10373000F2CF4695F1DF08C0161617061806991F36
:10374000F1CF86957105610508940895E894BB272B
:1037500066277727CB0197F908950E94C01B0C9428
:10376000731B0E94651B38F00E946C1B20F0952390
:1037700011F00C944C1B0C94521B11240C94A71B9D
:103780000E94841B70F3959FC1F3950F50E0551F65
:10379000629FF001729FBB27F00DB11D639FAA27A6
:1037A000F00DB11DAA1F649F6627B00DA11D661FF5
:1037B000829F2227B00DA11D621F739FB00DA11D16
:1037C000621F839FA00D611D221F749F3327A00DD0
:1037D000611D231F849F600D211D822F762F6A2F6C
:1037E00011249F5750409AF0F1F088234AF0EE0FD1
:1037F000FF1FBB1F661F771F881F91505040A9F7FE
:103800009E3F510580F00C944C1B0C94A71B5F3F0E
:10381000E4F3983ED4F3869577956795B795F79539
:10382000E7959F5FC1F7FE2B880F911D96958795B1
:1038300097F90895FA01EE0FFF1F30962105310523
:10384000A1F16115710561F48038BFE39B0749F16F
:1038500068949038810561F08038BFEF9B0741F094
:1038600099234AF5FF3FE1053105210519F1E89457
:103870000894E795D901AA2329F4AB2FBE2FF85F4E
:10388000D0F310C0FF5F70F4A695E0F7F73950F061
:1038900019F0FF3A38F49F779F930DD00F9007FCF3
:1038A0009058089546F00C94521B60E070E080E858
:1038B0009FE308954FE79F775F934F933F932F9335
:1038C0000E94151D2F913F914F915F910E94AD1B5A
:1038D0000C94721C29F416F00C944C1B0C94A61B2F
:1038E0000C94521B0E948C1BA8F39638A0F707F883
:1038F0000F92E8942BE33AEA48EB5FE70E94C31B80
:103900000F920F920F924DB75EB70F920E945D1DFE
:10391000E8E6F0E00E94A41C4F915F91EF91FF91C7
:10392000E595EE1FFF1F49F0FE57E0684427EE0FB4
:10393000441FFA95E1F74195550B0E94D71C0F9053
:1039400007FE0C94CB1C0895DF93CF931F930F9326
:10395000FF92EF92DF927B018C01689406C0DA2E11
:10396000EF010E94C01BFE01E894A59125913591BD
:1039700045915591A6F3EF010E94041AFE019701AB
:10398000A801DA9469F7DF90EF90FF900F911F91F3
:10399000CF91DF9108959B01AC0160E070E080E879
:1039A0009FE30C94591A0C944C1B0C94911D0E948B
:1039B0008C1BD8F39923C9F3940F511DA3F3915095
:1039C000504094F059F0882332F0660F771F881F1B
:1039D00091505040C1F79E3F51052CF7880F911D23
:1039E0009695879597F908955F3FACF0983E9CF0C7
:1039F000BB27869577956795B79508F4B160939541
:103A0000C1F7BB0F58F711F460FFE8CF6F5F7F4F2E
:103A10008F4F9F4FE3CF0C94A71B16F00C94911D72
:103A20000C94521B68940C944C1B0E948C1BA8F3A2
:103A30009923C1F3AEF3DF93CF931F930F93FF92BC
:103A4000C92FDD2788232AF02197660F771F881F4B
:103A5000DAF720E030E040E85FEB9FE3883920F0C0
:103A6000803E38F021968F770E94ED19E0E9F0E072
:103A700004C00E94ED19EDEBF0E00E94A41C8B0144
:103A8000BE01EC01FB2E6F5771097595771F880BEE
:103A9000990B0E94D31A28E132E741E35FE30E94C9
:103AA000C01BAF2D9801AE01FF900F911F91CF91D8
:103AB000DF910E94041A0C94731BFA01DC01AA0F17
:103AC000BB1F9B01AC01BF5728F422273327442793
:103AD000507820C0B75190F4AB2F0024469537950D
:103AE0002795011CA395D2F3002071F0220F331FFC
:103AF000441FB395DAF30ED00C94EC1961307105C4
:103B0000A0E88A07B94630F49B01AC016627772705
:103B100088279078309621F0208331834283538325
:103B200008959F3F31F0915020F4879577956795E0
:103B3000B795880F911D9695879597F90895EF92FF
:103B40000F931F93CF93DF93E80147FD02C034E04A
:103B500001C034E1E42F440FFF0BF7FF03C0F195E0
:103B6000E195F109E32E022F2E2FAE010E947B205A
:103B7000CE01DF91CF911F910F91EF900895CF93D8
:103B8000DF938230910510F482E090E0E0916704C9
:103B9000F091680420E030E0C0E0D0E0309711F10F
:103BA0004081518148175907C0F04817590761F4FF
:103BB00082819381209719F09B838A832BC09093F5
:103BC00068048093670426C02115310519F0421757
:103BD000530718F49A01BE01DF01EF010280F3815F
:103BE000E02DDCCF2115310509F1281B390B2430DC
:103BF000310590F412968D919C9113976115710582
:103C000021F0FB019383828304C090936804809326
:103C10006704FD01329644C0FD01E20FF31F81935A
:103C20009193225031092D933C933AC02091650421
:103C300030916604232B41F420910201309103015D
:103C400030936604209365042091000130910101B6
:103C50002115310541F42DB73EB740910401509133
:103C60000501241B350BE0916504F0916604E21711
:103C7000F307A0F42E1B3F0B2817390778F0AC018F
:103C80004E5F5F4F2417350748F04E0F5F1F50936C
:103C90006604409365048193919302C0E0E0F0E0F4
:103CA000CF01DF91CF9108950F931F93CF93DF93AF
:103CB000009709F48CC0FC013297138212820091A4
:103CC0006704109168040115110581F42081318188
:103CD000820F931F209165043091660428173907DD
:103CE00079F5F0936604E093650471C0D80140E073
:103CF00050E0AE17BF0750F412962D913C911397E8
:103D0000AD012115310509F1D901F3CF9D01DA018A
:103D10003383228360817181860F971F82179307F7
:103D200069F4EC0128813981260F371F2E5F3F4F40
:103D3000318320838A819B8193838283452B29F45D
:103D4000F0936804E093670442C01396FC93EE93EB
:103D50001297ED01499159919E01240F351FE217E9
:103D6000F30771F480819181840F951F029611965B
:103D70009C938E938281938113969C938E9312973A
:103D8000E0E0F0E0D80112968D919C911397009796
:103D900019F0F8018C01F6CF8D919C9198012E5F5E
:103DA0003F4F820F931F20916504309166042817BE
:103DB000390769F4309729F4109268041092670467
:103DC00002C0138212821093660400936504DF918F
:103DD000CF911F910F910895A0E0B0E0E2EFFEE1D6
:103DE0000C945E24EC01009721F4CB010E94BF1DCE
:103DF000B8C0FC01E60FF71F9C0122503109E21701
:103E0000F30708F4ACC0D9010D911C911197061766
:103E10001707B0F00530110508F49FC0C8010497DA
:103E20008617970708F499C002501109061B170B53
:103E3000019311936D937C93CF010E94541E8DC00A
:103E40005B01A01AB10A4C01800E911EA09167047B
:103E5000B091680440E050E0E12CF12C109709F497
:103E60004AC0A815B905D1F56D907C9011976301F2
:103E700082E0C80ED11CCA14DB0480F1A3014A19E8
:103E80005B096A0182E0C80ED11C1296BC901297A1
:103E90001396AC91B5E0CB16D10440F0B282A38367
:103EA00051834083D9016D937C930AC00E5F1F4FED
:103EB000C301800F911FF90191838083EB2DFA2FAD
:103EC000E114F10431F0D7011396FC93EE931297AD
:103ED00044C0F0936804E09367043FC08D919C91C7
:103EE00011974817590708F4AC017D0112960D90FF
:103EF000BC91A02DB3CF8091650490916604881584
:103F00009905E1F446175707C8F480910001909194
:103F10000101009741F48DB79EB740910401509183
:103F20000501841B950BE817F907C8F4F0936604A4
:103F3000E0936504F901718360830FC0CB010E9497
:103F4000BF1D7C01009759F0A801BE010E94E01F2F
:103F5000CE010E94541EC70104C0CE0102C080E001
:103F600090E0CDB7DEB7EEE00C947A241F93FC010D
:103F700099278827BC01E89411911032E9F3193090
:103F800010F01E30C8F31B3251F01D3249F4689412
:103F900006C00E944C20610F711D811D911D119161
:103FA00010531A30B0F33EF490958095709561955A
:103FB0007F4F8F4F9F4F1F910895F8940C94FB24CF
:103FC000FB01DC0102C001900D9241505040D8F736
:103FD00008956817790768F4FB01DC01E40FF51F09
:103FE000A40FB51F02C002900E9241505040D8F766
:103FF00008950C94E01FFC018191861721F088231D
:10400000D9F7992708953197CF010895FB01DC0175
:1040100001900D920020E1F70895FB01DC01415071
:10402000504048F001900D920020C9F701C01D9248
:1040300041505040E0F70895FB0151915523A9F0FC
:10404000BF01DC014D9145174111E1F759F4CD0154
:104050000190002049F04D9140154111C9F3FB0139
:104060004111EFCF81E090E001970895453251056D
:1040700020F4423010F00C944120FB011082CB015F
:104080000895BB274A3031F4992322F4BDE290957C
:1040900081959F4F0C946220592F482F372F262F40
:1040A000660F771F881F991F660F771F881F991F3C
:1040B000620F731F841F951F660F771F881F991F3C
:1040C0000895BB27FB015527AA27880F991FAA1F10
:1040D000A41710F0A41B83955051B9F7A05DAA3323
:1040E00008F0A95DA193009779F7B111B1931192EE
:1040F000CB010C94E1224F925F926F927F929F923C
:10410000AF92BF92CF92DF92EF92FF920F931F93E5
:10411000CF93DF93CDB7DEB729970FB6F894DEBF04
:104120000FBECDBF6A01122FB02E2BE3201720F057
:10413000FF24F394F00E02C0BCE3FB2E0F2D27E00A
:10414000AE014F5F5F4F0E940922AC018981982F19
:104150009970913031F0E1FC06C0E0FE06C090E2BB
:1041600005C09DE203C09BE201C090E0EE2DE0712E
:1041700083FF3CC0911102C083E001C084E081173D
:1041800018F4212F281B01C020E0E1110BC0F6011B
:10419000822F30E2882319F031938150FBCFC20E79
:1041A000D11C20E0992329F0D6019C93F601319689
:1041B0006F01C6010396E2FE0AC03EE4D6013C93BD
:1041C00041E411964C93119712963C9306C03EE63B
:1041D000F601308341E641833283FC01322F40E215
:1041E000332309F442C041933150FACF82FF44C0D7
:1041F000911102C083E001C084E0811718F4212FDF
:10420000281B01C020E0E1110BC0F601822F30E233
:10421000882319F031938150FBCFC20ED11C20E0CE
:10422000992329F0D6019C93F60131966F01C601BE
:104230000396E2FE0BC039E4D6013C933EE41196AE
:104240003C93119736E412963C9307C039E6F60189
:1042500030833EE6318336E63283FC01322F40E282
:10426000332319F041933150FBCFFC01E20FF11DD4
:1042700010828EEF9FEFB7C0F1E0911101C0F0E026
:104280006F2F70E01416150624F49A012F5F3F4F2C
:1042900002C021E030E0260F371FBB2029F06B2D34
:1042A00070E06F5F7F4F02C060E070E0260F371F45
:1042B000612F70E0261737071CF4121B212F01C055
:1042C00020E03E2D387159F4D601322F60E23323BD
:1042D00019F06D933150FBCFC20ED11C20E0FF23AB
:1042E00031F0D6019C93B6016F5F7F4F6B01E111F6
:1042F0000BC0F601922F30E3992319F031939150BE
:10430000FBCFC20ED11C20E09F2D940F3A81782F55
:104310007071A72E84FF03C0313309F49150191630
:1043200024F4993018F098E001C091E0E42F852F33
:1043300057FF02C0E0E080E06E2F782FE0E0F0E071
:10434000AEE29A2E3A01691A71082A01461A570AF2
:104350000B2D10E01195019511096F3F8FEF780734
:1043600029F4D6019C92C60101966C0146175707A5
:1043700084F0661677066CF47F01E40CF51CA1E06E
:10438000B0E0AC0FBD1FEA0EFB1ED7011196BC902A
:1043900002C090E3B92E615071093196C6010196B1
:1043A0007C016017710724F0D601BC926C01D5CF57
:1043B0006417750741F4363320F4353321F4A11026
:1043C00002C081E3B82EF601B082F701822F90E29D
:1043D000882319F091938150FBCFF701E20FF11D73
:1043E000108280E090E029960FB6F894DEBF0FBEF1
:1043F000CDBFDF91CF911F910F91FF90EF90DF9094
:10440000CF90BF90AF909F907F906F905F904F90B4
:104410000895283008F027E03327DA01990F311D7D
:1044200087FD916000966105710539F432602E5F59
:104430003D9330E32A95E1F708959F3F30F08038AF
:104440007105610509F03C5F3C5F3D93913008F0D8
:104450008068911DDF93CF931F930F93FF92EF928C
:10446000192F987F9695E92F96959695E90FFF2736
:10447000EC5BFE4F99273327EE24FF24A701E701C9
:1044800005900894079428F4360FE71EF81E491F7C
:10449000511D660F771F881F991F0694A1F705907D
:1044A000079428F4E70EF81E491F561FC11D770F09
:1044B000881F991F661F0694A1F70590079428F49A
:1044C000F80E491F561FC71FD11D880F991F661F61
:1044D000771F0694A1F70590079420F4490F561F03
:1044E000C71FD81F990F661F771F881F0694A9F74B
:1044F00084911095177041F0D695C79557954795BB
:10450000F794E7941A95C1F7EAEEF0E068941590F5
:10451000159135916591959105907FE27395E1181C
:10452000F10A430B560BC90BD009C0F7E10CF11E81
:10453000431F561FC91FD01D7EF4703311F48A9596
:10454000E6CFE894015030F0080F0AF40027021774
:1045500008F4202F2395022F7A3328F079E37D93F6
:104560002A95E9F710C07D932A9589F606949795C8
:104570006795379517951794E118F10A430B560B79
:10458000C90BD00998F023957E9173957A3308F082
:1045900070E37C932013B8F77E9170617D9330F0C7
:1045A000839571E37D9370E32A95E1F71124EF90F1
:1045B000FF900F911F91CF91DF91992787FD9095E3
:1045C0000895DC01FC01672F71917723E1F73297A1
:1045D00004C07C916D9370836291AE17BF07C8F3DE
:1045E0000895DB018F939F930E944E23BF91AF915B
:1045F000A29F800D911DA39F900DB29F900D11243D
:104600000895991B79E004C0991F961708F0961B2E
:10461000881F7A95C9F780950895A1E21A2EAA1BE2
:10462000BB1BFD010DC0AA1FBB1FEE1FFF1FA21762
:10463000B307E407F50720F0A21BB30BE40BF50B5F
:10464000661F771F881F991F1A9469F760957095E8
:10465000809590959B01AC01BD01CF010895052E79
:1046600097FB1EF400940E94462357FD07D00E943A
:104670000D2307FC03D04EF40C944623509540952F
:10468000309521953F4F4F4F5F4F089590958095FE
:10469000709561957F4F8F4F9F4F08950E94EC2436
:1046A000A59F900DB49F900DA49F800D911D112486
:1046B0000895B7FF0C944E230E944E23821B930B48
:1046C0000895DF93CF931F930F939A9DF02D219F11
:1046D000F00D8B9DF00D8A9DE02DF10D039FF00DE7
:1046E000029FE00DF11D4E9DE00DF11D5E9DF00D50
:1046F0004F9DF00D7F936F93BF92AF925F934F9357
:10470000D5010E94EC248B01AC01D7010E94EC245E
:10471000EB01E80FF91FD6010E94B1232F913F91C1
:10472000D6010E94EC24C60FD71FE81FF91FAF91D6
:10473000BF910E94B1232F913F910E94EC24C60F9C
:10474000D71FE81FF91FD6010E94EC24E60FF71FC0
:104750009801BE01CF0111240F911F91CF91DF91DC
:1047600008950E94EC24460F571FC81FD91F08F454
:1047700031960895689401C0E894F92FF12B12F056
:104780000C94EE23A0E0B0E0E8ECF3E20C9460249B
:10479000092E059422F40E944A24112392F4F0E891
:1047A0000F26FFEFE094F09400951095B094C0941C
:1047B000D094A194BF0ACF0ADF0AEF0AFF0A0F0BB9
:1047C0001F0B0E94F92307FC0E944A24CDB7DEB7D5
:1047D000ECE00C947C24689401C0E8948F929F9242
:1047E000CF93DF930E94F923DF91CF919F908F9019
:1047F000089588249924F401E401B0E49F93AA2742
:104800009A158B049C04ED05FE05CF05D007A10782
:1048100098F4AD2FDC2FCF2FFE2FE92D982C892E69
:10482000982F872F762F652F542F432F322F222733
:10483000B85031F7BF9127C01B2EBF91BB27220F65
:10484000331F441F551F661F771F881F991F881C21
:10485000991CEE1FFF1FCC1FDD1FAA1FBB1F8A1450
:104860009B04EC05FD05CE05DF05A007B10748F068
:104870008A189B08EC09FD09CE09DF09A00BB10BD2
:1048800021601A94E1F62EF49401AF01BE01CD012E
:10489000000C0895609570958095909530954095A1
:1048A000509521953F4F4F4F5F4F6F4F7F4F8F4F29
:1048B0009F4F08952F923F924F925F926F927F92F7
:1048C0008F929F92AF92BF92CF92DF92EF92FF9220
:1048D0000F931F93CF93DF93CDB7DEB7CA1BDB0BCC
:1048E0000FB6F894DEBF0FBECDBF09942A88398871
:1048F00048885F846E847D848C849B84AA84B98478
:10490000C884DF80EE80FD800C811B81AA81B98183
:10491000CE0FD11D0FB6F894DEBF0FBECDBFED0197
:1049200008950F93083090F0982F872F762F652FDA
:10493000542F432F322F22270850F4CF220F331F3A
:10494000441F551F661F771F881F991F0A95B2F7CE
:104950000F91089597FB10F8169400080F930830F4
:1049600098F00850232F342F452F562F672F782F7C
:10497000892F902DF4CF0594979587957795679516
:1049800057954795379527950A95AAF70F9108955A
:104990002A0D3B1D4C1D5D1D6E1D7F1D801F911F2F
:1049A00008952A193B094C095D096E097F09800B9E
:1049B000910B08950024A7FD00942A1730054005A7
:1049C000500560057005800590050895EE0FFF1FE6
:1049D0000590F491E02D0994A29FB001B39FC0010E
:1049E000A39F700D811D1124911DB29F700D811D1B
:1049F0001124911D089511E0C2E2D1E004C0FE012E
:104A00000E94E6242196C332D107C9F7F894FFCF5C
:104A100000006904800001506F72742073C3A97292
:104A20006965206163746976C3A92E20426175644B
:104A3000726174653A20005C22007B22636D6422FF
:104A40003A2200222C2022737461747573223A007A
:104A50002C202276616C7565223A007D006E756CA3
:104A60006C00280022456E20617474656E746520A8
:104A70006475206361707465757220424D503238E0
:104A8000302E2E2E22006469676974616C5772693A
:104A90007465006469676974616C52656164006182
:104AA0006E616C6F67577269746500616E616C6FDF
:104AB0006752656164006C63645267622E7365744B
:104AC000437572736F72006C63645267622E70720A
:104AD000696E74006C63645267622E636C65617208
:104AE00000626D703238302E7265616454656D708D
:104AF0006572617475726500626D703238302E7245
:104B0000656164507265737375726500626D7032B1
:104B100038302E72656164416C7469747564650027
:104B2000736572766F732E777269746500224C61BB
:104B300020636F6D6D616E6465206E2765737420F0
:104B400070617320656E636F726520696D706CC3F0
:104B5000A96D656E74C3A96522000E0F10101213A3
:104B600000000000670B370B070B360B0B0B130B0A
:104B7000270B0000000097105615070B0A0B0000CA
:104B800000001B145615BB13F9138D13A7139913AB
:104B90000D0A006E616E00696E66006F7666000039
:00000001FF
